:020000040040BA
:10000000A55AA55A030000000000000000084000A7
:100010000000000000005000000000000008400048
:1000200000000000000000000000000000000000D0
:1000300000000000000000000000000000000000C0
:1000400000000000000000000000000000000000B0
:1000500000000000000000000000000000000000A0
:1008000000000120210C4000FD0D4000FF0D4000C4
:10081000010E4000030E4000050E400000000000E5
:10082000000000000000000000000000070E400073
:10083000090E4000000000000B0E40000D0E4000AD
:100840000F0E40000F0E40000F0E40000F0E400034
:100850000F0E40000F0E40000F0E40000F0E400024
:100860000F0E40000F0E40000F0E40000F0E400014
:100870000F0E40000F0E40000F0E40000F0E400004
:100C00000F0E40000F0E400000BF00BF00BF00BF2E
:100C1000FFF7FABF00000000000000000000000025
:100C200072B64FF000004FF000014FF000024FF09D
:100C300000034FF000044FF000054FF000064FF0A6
:100C400000074FF0640001380028FCDC4C480168C4
:100C50004FF0807201EA020100291CD14948016865
:100C60004FF0807241EA02010160474801684FF08D
:100C7000010241EA02010160444845F6F0210160A9
:100C80004AF20F5101603E4801684FF0807201EA5C
:100C900002010029F7D03E483E4901603E490868FC
:100CA00020F0040040F0010008603C49086820F092
:100CB000040040F001000860394880F30888394892
:100CC00001684FF00000814200D015E036484CF238
:100CD000205101604DF6281101603448344901600B
:100CE0000AE034484CF2205101604DF628110160B1
:100CF00031482F490160FFE73048002814D03048C0
:100D000001684FF0010201EA0201002902D02D49D9
:100D10002D4A01E02D492C4A521A013A04DD0020E7
:100D2000002309C1083AFCDA2948002809D02949DA
:100D3000294A521A013A04DD0020002309C1083A69
:100D4000FCDA2648002809D02549264A521A013AD9
:100D500004DD0020002309C1083AFCDA22480068BB
:100D60004FF05A318842F9D000F07CF800F0F8F8E2
:100D700062B600F0EBF800F039F800BFFEE700BF04
:100D800010C32D4030C32D4004C32D4000C02D4062
:100D900008ED00E00000002094EF00E090EF00E09C
:100DA00000000120040026401000274000002740DA
:100DB000400000FF10C0464000C046400100000057
:100DC00000C028400000402000604020100040206B
:100DD00001000000000000200000012001000000D0
:100DE000000000000080000088004020024B1A68CC
:100DF000002AFCD01868704718054020FEE7FEE77F
:100E0000FEE7FEE7FEE7FEE7FEE7FEE7FEE7FEE7BA
:100E10004FF0E022D2F80C3D23F4E0631843C2F80F
:100E20000C0D70474309012200F01F00403302FA05
:100E300000F04FF0E02242F82300704743090122FE
:100E400000F01F00603302FA00F04FF0E02242F899
:100E500023007047090100F1E020C9B280F80014B6
:100E6000704700002DE9F8431F4B00251E68B5426E
:100E700007D11E4C00262768B046BE4221D1BDE8EE
:100E8000F883D3E90101DA680024521A02F0030C56
:100E90009208A24209D101EB820100EB82020020FC
:100EA000844508D801350C33E1E751F8247040F847
:100EB00024700134EDE711F8014B013002F8014BC9
:100EC000EEE7D4E9013500210136ED1A1846083461
:100ED00025F003024FEA950903F002F8AA0718BFAC
:100EE00040F82980C9E700BF105640005C5640001A
:100EF000144B0C22F0B5144D1E6802FB0533B542AD
:100F000000D3F0BDD3E90101DA680024521A02F0DF
:100F1000030C9208A24209D101EB820100EB82028C
:100F20000020844508D801350C33E8E751F82470D7
:100F300040F824700134EDE711F8014B013002F85C
:100F4000014BEEE710564000000000007047FEE73E
:100F5000024B586800F00300704700BF00002640B5
:100F6000A04B00215B6813F0030F0CBF0120002091
:100F7000F0B54B00013103F18043F02903F518135C
:100F8000B3F8802892B242EA0002A3F88028F0D198
:100F90004FF0E022D2F8883D43F47003C2F8883D58
:100FA000BFF34F8FBFF36F8F8F4B00248F491C60AF
:100FB000D9638F498F4859608F49904D1964904982
:100FC000996001F5800158648E48D8608E48986415
:100FD0004FF0D85018618D48D8648D4858618D48BD
:100FE00018658D4898618D4840EA45008C4D5865DC
:100FF0008C48D8618C4840EA45059D658B4D1D6243
:101000008B4D40EA4500D8654FF0804058628948D2
:101010001866894898624FF0CE405C66D86287486F
:1010200098664FF0D04018638548D8664FF060400E
:1010300058638448186799635C67BFF34F8FBFF3A9
:101040006F8FD2F8141D8F0303D4D2F8142DD6035A
:1010500066D54FF0E0210022C1F8842DBFF34F8FF9
:10106000D1F8802D43F6E075C2F3C904C2F34E32C5
:10107000520102EA0507204647EA8076C1F8746FFC
:10108000BFF34F8F0138F7D2203A12F1200FF0D181
:10109000D1F8842D42F00102C1F8842D0022C1F85C
:1010A000502FBFF34F8FC1F8842DBFF34F8FD1F86E
:1010B000802D43F6E0754FF0E021C2F3C904C2F37E
:1010C0004E32520102EA0507204647EA8076C1F80F
:1010D000746FBFF34F8F0138F7D2203A12F1200F0F
:1010E000F0D1D1F8842D42F00102C1F8842D002204
:1010F000C1F8502FBFF34F8FD1F8142D22F40032D6
:10110000C1F8142DBFF34F8FBFF36F8FD1F8142D9B
:1011100022F48032C1F8142DBFF34F8FBFF36F8FCD
:1011200000224FF0E020114603EB8204E56BED074F
:101130000AD5C0F8981D013153F82250C9B2C0F841
:101140009C5DE46BC0F8A04D01320F2AECD14FF04A
:10115000E023D3F8942D42F00302C3F8942DBFF39B
:101160004F8FBFF36F8F0022C3F8842DBFF34F8FD3
:10117000D3F8802D43F6E074C2F3C900C2F34E32B7
:10118000520102EA0406014646EA8175C3F8605F2F
:10119000BFF34F8F0139F7D2203A12F1200FF0D16F
:1011A000BFF34F8FD3F8142D42F48032C3F8142DBF
:1011B000BFF34F8FBFF36F8FBFF34F8FBFF36F8FAF
:1011C0000022C3F8502FBFF34F8FBFF36F8FD3F8B8
:1011D000142D42F40032C3F8142DBFF34F8FBFF328
:1011E0006F8FF0BD00002640100040203F0004102B
:1011F0000000000029000B071F0008030D0000007D
:10120000000040000000001023000B1619000B1610
:1012100000000020210008030000402001000B0313
:101220000C0000000040402001000C1300C04020D2
:101230000D0000002DC004130000604013000413D3
:1012400035000B032700041370472DE9F047BD4F0D
:1012500001210446386001F0FBFC3B68002B40F0A4
:101260004981E57AB84EDFF80C83DFF80C93002D46
:1012700040F04781A57BB54EDFF80083DFF8F89298
:10128000002D40F04E81A57AB14EDFF8F482DFF8F0
:10129000E892002D40F08681667AAE4DDFF8E48258
:1012A000DFF8D492002E40F08E813546DFF8B08210
:1012B000DFF8D492DFF8C0A2237AAB4200F2948127
:1012C0000025DFF89082DFF8BC92DFF8ACA2637AE9
:1012D000AB4200F29B8100250221386801F0B8FC86
:1012E000E27BEBB29A4200F2A3813D79002D44D11A
:1012F000DFF874820123294628463B71D8F8043070
:101300009847D8F808307B20DFF840829847924B06
:1013100028461B689847914B28461B6898478D4B79
:1013200028461B689847D8F8043028469847D8F8CC
:101330000830DFF838827B2098472846D8F80030FC
:1013400098472946D8F804307B209847844BDFF82B
:10135000008228461B689847D8F8043028469847EA
:10136000D8F808307B209847774B28465B68984729
:101370007C4B294628461B6898470123E27C9A4209
:1013800000F260810025774FDFF80082DFF8E891F6
:10139000637CAB4200F25E810025704FDFF8F08184
:1013A000DFF8D491637BAB4200F2658100256A4F80
:1013B000DFF8E081DFF8C091237BAB4200F26B8164
:1013C0000025664FDFF8C881DFF8AC91637BAB4244
:1013D00000F2718100255E4FDFF8A481DFF898915B
:1013E000A37AAB4200F2788100255F4FDFF880815D
:1013F000DFF88491A37CAB4200F280810025554F39
:10140000DFF88081DFF87091637AAB4200F2888167
:1014100000254F4FDFF86881DFF85C91A37AAB427B
:1014200000F290810025494FDFF85081DFF84891A4
:10143000A37BAB4200F29881DFF85C810123414F2E
:1014400000257B21042087F88230D8F8003087F807
:10145000805087F8815087F88350984701F03CFC12
:10146000D8F800307B2105209847D8F800307B2140
:1014700006209847DFF8D09001F00DFCDFF8F4A0CB
:10148000D8F800307B21DFF8148107209847E37AF1
:10149000AB4200F27B8197F88050002D40F0B18183
:1014A000324FDFF8FC80DFF8D090237CAB4200F2B3
:1014B00088812D4D2E4FDFF8C080A37CB34200F20F
:1014C000908120460421BDE8F04701F0C1BB142201
:1014D000E06B6A4301358358104403EBC3034B446C
:1014E0005B7818F803301B01F3589847A37CAB4294
:1014F000EDD8B6E600251C4EDFF87480DFF8789052
:10150000F4E7206A013D50F8353000EBC50003EBED
:10151000C3034B445B7818F8033056F833309847D0
:10152000A5E6013DE06A0C222B01C35800EB051033
:1015300003EBC3034B445B7818F803305343F35871
:1015400098479DE68C0040209C504000FC4F400096
:101550006C504000C04F4000A04F4000B04F4000D2
:101560001C504000945040004C5040000850400037
:10157000464F4000584F4000F34A40006A4F400039
:10158000614F4000854F40007C4F40004F4F40006E
:101590008E4F4000974F400000004020844840009C
:1015A000734F4000013D2822E06914216A438358AB
:1015B000104403EBC3034B445B7818F803304B43F0
:1015C000F358984765E61421013EA06901FB06F235
:1015D0008358104403EBC3034B445B7818F8033083
:1015E0004B43EB5898475DE60C21606901FB05F21F
:1015F00001358358104403EBC30353445B7819F857
:1016000003304B4358F80330984755E61421A0693E
:1016100001FB05F201358358104403EBC303534427
:101620005B7819F8033001FB03835B6898474EE64B
:10163000226B013502EBC30152F83300496800F018
:1016400018FC4DE6226C52F833203A4453710133B2
:10165000DBB293E61422A06B29466A430135835816
:10166000104403EBC3034B445B7818F8033057F87E
:10167000233098478CE60C22A06A6A4301358358D0
:10168000104403EBC3034B445B7818F8033057F85E
:101690003330984786E60C22606A6A4301358358E6
:1016A000104403EBC3034B445B7818F8033057F83E
:1016B0002330984780E60C22A06A6A43013583589C
:1016C000104403EBC3034B445B7818F8033007EB7B
:1016D000C3035B68984779E62822E06914216A43CE
:1016E00001358358104403EBC3034B445B7818F86F
:1016F000033001FB03735B68984771E61422E06BCB
:1017000029466A4301358358104403EBC3034B4415
:101710005B7818F8033007EB03135B68984769E6BA
:101720001421A06901FB05F201358358104403EB35
:10173000C3034B445B7818F8033001FB03739B68C9
:10174000984761E62822E06914216A4301358358ED
:10175000104403EBC3034B445B7818F8033001FBE0
:101760000373DB68984759E6E06A2B010C22C358E3
:1017700000EB0510013503EBC3034B445B7818F80D
:10178000033002FB03735B68984751E6226A02EB61
:10179000C500436858F82330032B0ED052F835307B
:1017A000194A03EBC30313445B781AF8033009EBBF
:1017B000C3035B689847013569E6012387F88030E9
:1017C000F9E7606B50F8353000EBC500013503EBED
:1017D000C3034B445B7818F8033057F8333098470D
:1017E00063E61422E06B724301368358104403EB26
:1017F000C30343445B78FB5C05EB0313DB6898474A
:101800005BE6BDE8F08700BFF34A40002DE9F047F2
:10181000204F00250224204EDFF88C8096F882307D
:10182000AB421DD86CBB1D4F2546DFF88080DFF82A
:101830008090DFF86CA096F883309D4221D257F853
:10184000040B0C2200EBC00353445B7819F80330FF
:1018500002FB03839B689847012811D00135EAE712
:1018600057F8040B0E4B00EBC00213440D4A5B7893
:10187000D35C142202FB03839B689847012803D1A1
:1018800001242046BDE8F087022805F1010508BFC4
:101890000024C3E7804840008C0040207C48400082
:1018A000F34A4000614F40006C504000FC4F400044
:1018B0006A4F40002DE9F0412F4C23682BBBBDE857
:1018C000F0811B6A03EBC500426856F82220032A08
:1018D0000CD153F83530294A03EBC30313445B782A
:1018E00018F8033007EBC3035B689847013523689A
:1018F000DA7A9542E5D394F88030002BDFD00025CA
:101900001F4E204FDFF8748013E000251E4E1F4F3E
:10191000DFF88480EBE7586B50F8353000EBC500FA
:10192000013503EBC30343445B78FB5C56F833306B
:10193000984723681A7C9542EDD30025144E154F25
:10194000DFF838802068837C9D4204D30421BDE801
:10195000F04101F07DB91422C06B6A430135835810
:10196000104403EBC30343445B78FB5C06EB0313B7
:10197000DB689847E6E700BF8C004020F34A400050
:1019800008504000734F4000844840009C50400085
:101990004C504000464F4000584F400010B5FFF7F4
:1019A00054FC074B93F880402CB1FFF72FFF0446FF
:1019B00018B9FFF77FFF204610BD0124FBE700BFE9
:1019C0008C004020054A00EBC0031344044A5B78B6
:1019D000D25C044B03EB02139B681847F34A4000A8
:1019E000464F40004C504000014B1860704700BF0C
:1019F00000004020064A00EBC00301211344054AC1
:101A00005B78D25C044B03EBC2035B68184700BFF2
:101A1000F34A4000734F400008504000064A00EB74
:101A2000C00300211344054A5B78D25C044B03EBEE
:101A3000C2035B68184700BFF34A4000734F400081
:101A40000850400008B5044B0221186801F000F965
:101A5000BDE8084001F0D0B88C00402008B5044B28
:101A60000221186801F0F4F8BDE8084001F0CCB894
:101A70008C00402008B5044B0221186801F0E8F8FA
:101A8000BDE8084001F0CEB88C00402008B5044BFA
:101A90000221186801F0DCF8BDE8084001F0CAB87E
:101AA0008C004020014B1B68184700BF00004020FD
:101AB000F8B5074600200E4614461D4601F012F9FF
:101AC000002138602846316001F013F92060F8BD2C
:101AD00038B50C460021154601F006F92368184474
:101AE000A842206034BF0020012038BD704710B5E7
:101AF000D0B14368C3B10268013B0C4902EBC2029A
:101B00001B04885C8C180A4A03F47023617952F82C
:101B1000302002EB8102D2F8801021F470210B43B7
:101B200043F00043C2F8803010BD00BFF34A4000CC
:101B3000B449400098B10368094A03EBC303D25C7F
:101B4000084B53F8321043688A68012B22F0FC429C
:101B500038BF01235B0603F0FC4313438B607047DF
:101B6000F34A4000B4494000F0B5064685B000286D
:101B70003FD002681425224802EBC2027368811824
:101B8000805C0A794C7905FB00221E4850F82250EF
:101B900073B18F7805EB84001B49013B826801EB30
:101BA0000711CF688968BB4053400B4053408360A6
:101BB0004CF2503303AA02A901A8FFF779FFEF6B9B
:101BC00002A9039A01A8FFF783FFFB0706D50028A7
:101BD000F5D031680120FFF765FF0AE00028F8D151
:101BE00024B2736805EB84042BB1A36843F000436F
:101BF000A36005B0F0BDA36823F00043F8E700BF81
:101C0000F34A4000D04940005C464000704780B134
:101C100003680A4A03EBC303D118D25C0B79142181
:101C200001FB0233064A52F82330426812B1012206
:101C30005A6370475A6B22F00102F9E7F34A4000F9
:101C4000D04940007FB5044640B3436833B30368CE
:101C500001A8134A03EBC303D118D25C0B791421FA
:101C600001FB02330F4A02A952F82350012303AAB1
:101C7000AB634CF25033FFF71BFFEE6B02A9039AE4
:101C800001A8FFF725FFF30706D50028F5D0216846
:101C90000120FFF707FF01E00028F8D104B070BD74
:101CA000F34A4000D04940007047704758B103687C
:101CB000054A03EBC303D25C044B53F8222013689C
:101CC00023F0010313607047F34A4000C449400009
:101CD000E0B10389D3B103680D4A03EBC303D25CBF
:101CE0000C4B53F822104389427B1B04120603F469
:101CF0007F0302F080721343027B43EAC273827B4C
:101D00001201D2B2134343F001030B60704700BFCE
:101D1000F34A4000C4494000054B00EBC0001A5C88
:101D2000044B53F82220136823F00103136070471B
:101D3000F34A4000C449400070B10389012B0BD124
:101D40000368064A03EBC303D25C054B53F8222019
:101D5000136843F001031360704700BFF34A40006B
:101D6000C4494000A2E780B1038973B10368074A00
:101D700003EBC303D25C064B53F8222043891B04B8
:101D800003F47F0343F0010313607047F34A4000FC
:101D9000C44940007FB5044618B303890BB3037BE5
:101DA000016803BB01EBC101124B03AA01A85D5CF2
:101DB0004CF2503302A9FFF77BFE0F4B53F825502E
:101DC0006E6802A9039A01A8FFF782FE002E06DBC7
:101DD0000028F5D021680120FFF764FE01E000280B
:101DE000F8D104B070BD022004B0BDE87040FFF728
:101DF00059BE00BFF34A4000C44940007FB50446C5
:101E000028B303891BB3437B0BB3037B016803BB7C
:101E100001EBC101124B03AA01A85D5C4CF25033E7
:101E200002A9FFF745FE0F4B53F825506E6802A933
:101E3000039A01A8FFF74CFE002E06DB0028F5D020
:101E400021680120FFF72EFE01E00028F8D104B040
:101E500070BD022004B0BDE87040FFF723BE00BF94
:101E6000F34A4000C4494000704770477047002063
:101E700070477047704770472DE9FF4104460028BE
:101E800073D003683A4A03EBC30381881344394A89
:101E90009B7912F8336002EBC302374B57785568D1
:101EA00053F82630002930D053F8271029425CD14E
:101EB00053F82710DFF8C880294343F827102F4B29
:101EC00053F826301A6842F001021A605A6842F04C
:101ED00001025A6000F086FD4CF2503303AA02A9B9
:101EE00001A8FFF7E5FD039A02A901A8FFF7F0FD9D
:101EF00058F8263053F827302B4234D10028F2D03E
:101F000021680120FFF7CEFD2FE053F8271029426A
:101F10002BD053F82710DFF8688021EA050143F839
:101F20002710164B53F826301A6842F001021A6047
:101F30005A6842F001025A6000F054FD4CF25033EE
:101F400003AA02A901A8FFF7B3FD039A02A901A8F9
:101F5000FFF7BEFD58F8263053F827302B4202D049
:101F60000028F2D0CCE70028CAD104B0BDE8F08147
:101F7000F34A4000843F4000FC484000DC484000F9
:101F8000EC48400007B581F0010100906846ADF8CB
:101F90000410FFF771FF03B05DF804FB7047704752
:101FA000024A936843F001039360704700002D409C
:101FB000024A936823F001039360704700002D40AC
:101FC000024AD36843F48073D360704700802C408A
:101FD000024AD36823F48073D360704700802C409A
:101FE000F0B5044685B000282BD0C379013BDBB2A5
:101FF000022B26D8174A526E520F052A23D1164AB1
:1020000002A9164E01A8D55C4CF2503303AAFFF783
:102010004FFDD6F8887102A9039A01A8FFF758FD71
:10202000002F06DB0028F4D021680120FFF73AFDDD
:1020300007E00028F8D1074A536E23F003031D433D
:10204000556605B0F0BD01680A2005B0BDE8F04056
:10205000FFF728BD00C039401850400000C02D4097
:1020600030B18288054B22B19A6842F001029A6031
:1020700070479A6822F00102F9E700BF00002D4086
:1020800030B18288054B22B1DA6842F48072DA609E
:102090007047DA6822F48072F9E700BF00802C40B4
:1020A00000F0E0B8704770477047F0B5002869D07D
:1020B0000268354B02EBC204344E23441B7A06EB14
:1020C0000316D0E9025300796A40F4685A4042404E
:1020D0002F4850F82170974253D040F821202D4AC4
:1020E0002D481268116C7268825C01EBC202526862
:1020F000B2F57A7F45D3B668805D01EBC0014968CF
:10210000B1F57A7F3DD3B3F57A7F3AD34FF47A763F
:1021100040F2C737B2FBF6F2B1FBF6F1B3FBF6F3D0
:1021200002EB420057430A26B0FBF1F002EB8201BA
:102130000130B1FBF3F10931884238BF084640F263
:10214000F3314343704359436060B1FBF7FC07FB35
:102150001C117143B1FBF7F140F2DD3706FB0C11A6
:102160007B4340F2094704317A43A160B3FBF2F7A5
:1021700002FB17337343B3FBF2F306FB0733033B56
:10218000E3606561F0BD00BFF34A40000C494000C8
:10219000100140208C0040209100402078B103685D
:1021A000094A03EBC303017913441A7A074B03EB83
:1021B0000213DA68136819B143F001031360704722
:1021C00023F00103FAE700BFF34A40000C49400046
:1021D0007FB500EBC0021A4B054613441A7A194B1F
:1021E00003EB0213DC6800F0B9FD2368DA071BD5A6
:1021F0004CF2503303AA02A901A8FFF759FC266943
:1022000002A9039A01A8FFF763FCF30606D400288D
:10221000F5D029460120FFF745FC01E00028F8D160
:10222000236823F001032360636923F00F036361D4
:10223000236943F00303236100F0A8FD04B070BDDF
:10224000F34A40000C49400008B10068C0E77047FD
:10225000034B53F82030186900F00300704700BFAB
:1022600098494000F8B50D4D00240D4E0D4F55F81E
:10227000042B3168136903F0030361B151690B400A
:1022800005D057F8241000201361FFF70BFC013430
:10229000072CECD1F8BD1361F9E700BF9849400065
:1022A0008C0040207C4940007047022070477047F6
:1022B00010B590B103680E4A03EBC303D25C0D4B1B
:1022C00003EBC20153F8322000230C79D9B28C42BF
:1022D00004D8136843F00043136010BD02EB830081
:1022E0000133D0F8801021F00041C0F88010EDE7F4
:1022F000F34A4000B449400010B5002844D0838818
:10230000002B41D00368214A03EBC303047DD25C58
:102310001F4B53F83220437B91681B0321F4E141AA
:1023200003F4E04321F07F012343448A0B4319491E
:10233000C4F30E04936013691940037F9B0703F0F5
:10234000804323430B431361447D837DA107002C0D
:102350004FEA437301F0804103F0005343EA010365
:10236000418B008BC1F30A0143EA01030A4901EAE8
:10237000004143EA0103D3600CBF80230023936133
:10238000136823F00043136010BD00BFF34A400000
:10239000B44940000080FFBF0000FF0370B1838894
:1023A000012B0BD10368064A03EBC303D25C054B38
:1023B00053F83220136823F000431360704700BFC6
:1023C000F34A4000B44940007FB500EBC003134A14
:1023D0000446D25C124B53F832502B68002B1BDBA7
:1023E0004CF2503303AA02A901A8FFF761FB6E6803
:1023F00002A9039A01A8FFF76BFB730708D4002812
:10240000F5D001202146FFF74DFB012004B070BD3F
:102410000028F6D10220F9E70020F7E7F34A400050
:10242000B44940007047F0B500287FD0C468026806
:1024300006694A4FD0E901C584EA0200704080EA8B
:102440000C0080EA050357F8210098426ED047F847
:10245000213002EBC202424B04EBC40441481B682A
:10246000414902441B6C497810F804E003EBC103B6
:10247000D0793E4A5F6805FB0CF340F6381C3C4CB3
:10248000B6FBF2F6B7FBF2F73A4A0CFB06FC54F83F
:102490002E405343B3FBFCF2642A48D8634534BF53
:1024A00011460C21052A08D90A2A54D90F2A50D9D5
:1024B000142A8CBF4FF47A71B8214FF4FA1307FB3A
:1024C00001FC03FB06F2B3FBF1F3B2FBFCF2D21A00
:1024D0004FF0804C02F5807294452BD80023BCF15C
:1024E000000F2AD19B007D43BF33ADB2DA092560CE
:1024F00000EB400502FB01F3C9B204EB850541EA9C
:10250000034102FB03330C2269604FF47A715B08CC
:1025100002FB00404E4303F2E733B6FBF7F7013FFF
:10252000C3F31303C7F31307AF60C360F0BD4FF4E9
:102530007A71C2E74FEA9C0CCEE70CEB030E96458E
:102540009CBF03EB4C03A2EB0E024FEA9C0C5B0812
:10255000C5E77021B1E73021AFE700BF200140207F
:102560008C004020F34A40009100402040420F0080
:10257000CC494000A0860100704710B5C0B1036887
:102580000C4803EBC3030C4CC1188A781201A45801
:10259000C25C0B79142101FB0233084A52F8233044
:1025A000196841F0080119601A6822EA04021A60E9
:1025B00010BD00BFF34A40005C464000D0494000D7
:1025C000DBE72DE9FF41044600286ED0384A394E3A
:1025D000D0E90031384803EBC30332F81150C11879
:1025E0008A78170106EB0212F759D2F80480C25C10
:1025F0000B79142101FB0233304A52F823607368CF
:102600003B4023FA08F3AB424FD04CF2503303AABD
:1026100002A901A8FFF74CFA02A9039A01A8FFF743
:1026200057FA7368D90304D50028F5D02168012032
:1026300039E00028FAD1336805FA08F503AA02A99F
:102640005D4001A83D405D404CF2503345F0070528
:102650003560FFF72DFA039A02A901A8FFF738FAAF
:1026600073685A0702D40028F5D0DFE70028DDD1CF
:102670004CF2503303AA02A901A8FFF719FA039AF2
:1026800002A901A8FFF724FA7368DB0302D500282A
:10269000F5D0CBE70028C9D17368C3F34243012BBF
:1026A00003D021680320FFF7FDF904B0BDE8F081F5
:1026B0004C4A40005C464000F34A4000D04940008C
:1026C0002DE9FF41044600286ED0394A394ED0E941
:1026D0000031394803EBC30332F81150C1188A782E
:1026E000170106EB0212F759D2F80480C25C0B798D
:1026F000142101FB0233314A52F8236073683B40D6
:1027000023FA08F3AB424FD04CF2503303AA02A98C
:1027100001A8FFF7CDF902A9039A01A8FFF7D8F99C
:102720007368D90304D50028F5D02168012039E069
:102730000028FAD1336805FA08F503AA02A95D401A
:1027400001A83D405D404CF2503345F00405356032
:10275000FFF7AEF9039A02A901A8FFF7B9F9736868
:102760005A0702D40028F5D0DFE70028DDD14CF26B
:10277000503303AA02A901A8FFF79AF9039A02A904
:1027800001A8FFF7A5F97368DB0302D50028F5D08F
:10279000CBE70028C9D17368C3F34243012B03D0B0
:1027A00021680320FFF77EF904B0BDE8F08100BF87
:1027B0004C4A40005C464000F34A4000D04940008B
:1027C0002DE9FF410546002855D02C4A2C4CD0E974
:1027D00000312C4803EBC30332F81160C1188A782A
:1027E000170104EB0212E759D2F80480C25C01A879
:1027F0000B79142101FB0233234A02A952F823402A
:1028000003AA236843F00C0323604CF25033FFF714
:102810004FF9039A02A901A8FFF75AF963689A03CE
:1028200004D50028F5D0296801201FE00028FAD13E
:10283000236806FA08F603AA02A95E4001A83E40F2
:102840005E402660236823F00C0323604CF2503373
:10285000FFF72EF9039A02A901A8FFF739F9636877
:102860009B0306D40028F5D029680320FFF71AF946
:1028700001E00028F8D104B0BDE8F0814C4A4000E6
:102880005C464000F34A4000D04940002DE9FF413A
:10289000064600283DD003681F4A2048D55C03EB5C
:1028A000C3031F4CC1188A78170104EB0212E759C1
:1028B000D2F80480C25C01A80B79142101FB023319
:1028C000184A02A952F8234003AA236843F00C03D4
:1028D00023604CF25033FFF7EBF8039A02A901A8EA
:1028E000FFF7F6F863689B0306D50028F5D031683A
:1028F0000120FFF7D7F80CE00028F8D1236805FA8B
:1029000008F55D403D405D402560236823F00C03E1
:10291000236004B0BDE8F081784A4000F34A4000EB
:102920005C464000D04940004068064B064933F8F9
:1029300010304A681B0322F4405203F440531343FF
:102940004B607047204A40000080284008B1FFF7E4
:10295000EBBF70471A4B1B4A1B68927B1B6C03EB47
:10296000C203194A5B6893421AD8184A934220D985
:10297000174A93421FD9174A934294BF0323042353
:102980001549CA6822F41F4242EA0323BFF34F8F5E
:10299000BFF36F8FCA6822F40042CA60CB607047F1
:1029A0000E4A934209D90E4A934294BF0623072345
:1029B000E6E70123E4E70223E2E70523E0E700BFBF
:1029C0008C00402091004020C037F4098014EF03B0
:1029D00000E1F505406BED0700C02E4000C2EB0B97
:1029E000404CE30D034B45F6F0221A604AF20F52B9
:1029F0001A60704700C02D401FB57E4CD4F81433C8
:102A0000DA012CD4D4F8343302A901A843F080733E
:102A1000C4F83433D4F8003343F00103C4F800336E
:102A2000D4F8043343F00103C4F80433FFF7DAFFAA
:102A30004CF2503303AAFFF73BF8039A02A901A80E
:102A4000FFF746F8D4F81433DB0106D40028F4D09D
:102A500007210120FFF726F801E00028F8D1654C96
:102A6000D4F8143398022CD4D4F8343302A901A832
:102A700043F40013C4F83433D4F8003343F00103B3
:102A8000C4F80033D4F8043343F00103C4F804332A
:102A9000FFF7A8FF4CF2503303AAFFF709F802A989
:102AA000039A01A8FFF714F8D4F81433990206D456
:102AB0000028F4D005210120FEF7F4FF01E00028F2
:102AC000F8D14C4CD4F814331A032CD4D4F8343342
:102AD00002A901A843F40023C4F83433D4F8003326
:102AE00043F00103C4F80033D4F8043343F0010386
:102AF000C4F80433FFF776FF4CF2503303AAFEF715
:102B0000D7FF039A02A901A8FEF7E2FFD4F8143315
:102B10001B0306D40028F4D006210120FEF7C2FFD3
:102B200001E00028F8D1334CD4F8143318042CD425
:102B3000D4F8343302A901A843F40043C4F8343371
:102B4000D4F8003343F00103C4F80033D4F804335D
:102B500043F00103C4F80433FFF744FF4CF2503351
:102B600003AAFEF7A5FF02A9039A01A8FEF7B0FF8A
:102B7000D4F81433190406D40028F4D07B210120A2
:102B8000FEF790FF01E00028F8D11A4CD4F810337A
:102B9000DA012CD4D4F8303302A901A843F08073B1
:102BA000C4F83033D4F8003343F00103C4F80033E1
:102BB000D4F8043343F00103C4F80433FFF712FFE1
:102BC0004CF2503303AAFEF773FF039A02A901A83F
:102BD000FEF77EFFD4F81033DB0106D40028F4D0D2
:102BE0007B210120FEF75EFF01E00028F8D104B050
:102BF00010BD00BF00C02D40024B01201B689B6828
:102C0000184700BF240140201FB5012301A8ADF8DB
:102C10000830034B1B685B68984705B05DF804FB00
:102C200024014020024B03205B689B68184700BFCB
:102C3000240140201FB5012301A8ADF80830034B43
:102C40005B685B68984705B05DF804FB2401402091
:102C5000012915D0022915D10B4A137A93B9012302
:102C60000A480B491372C37803EB430301EB830358
:102C70005360837803EB430301EB830111607047DA
:102C8000FFF7BABE704700BF240140207C4F4000D0
:102C90001C5040005EE6FFF7FDBF0C4A0C4812686E
:102CA0000368126C10B50B4CA17BE47B02EBC101F5
:102CB00002EBC4024968526891428ABF23F0400384
:102CC00023F0010343F00103036010BD8C0040209A
:102CD0000040264091004020FFF7DFBF08B100BE52
:102CE000FDE7704700207047B1FA81F04009704756
:102CF0007047002918BF002070470000EFF31080D4
:102D0000704708B5FEF724F9084B53F820203AB96C
:102D1000EFF31082D10700D472B603EB80010A6191
:102D200053F82020013243F8202008BD3001402014
:102D300008B5FEF70DF9084B53F82020013A43F887
:102D4000202003EB80021269D20703D453F820300D
:102D500003B962B608BD00BF3001402008B5FEF7D8
:102D6000F7F8094B820003EB8000016A31B9EFF3F9
:102D70001081C80700D472B69818016313441A6A08
:102D800001321A6208BD00BF3001402008B5FEF7CD
:102D9000DFF8064B03EB8000036A013B0362036B21
:102DA000DB0702D4036A03B962B608BD30014020D4
:102DB00008B5FEF7CDF8094B820003EB8000016CEB
:102DC00031B9EFF31081C80700D472B698180165C5
:102DD00013441A6C01321A6408BD00BF3001402050
:102DE00008B5FEF7B5F8064B03EB8000036C013B1A
:102DF0000364036DDB0702D4036C03B962B608BD3C
:102E000030014020EFF31080704708B5FEF7A0F8BE
:102E1000084B53F820203AB9EFF31082D10700D4C1
:102E200072B603EB80010A6153F82020013243F8A7
:102E3000202008BD9001402008B5FEF789F8084B16
:102E400053F82020013A43F8202003EB8002126956
:102E5000D20703D453F8203003B962B608BD00BFCF
:102E60009001402008B5FEF773F8094B820003EB90
:102E70008000016A31B9EFF31081C80700D472B63F
:102E80009818016313441A6A01321A6208BD00BF20
:102E90009001402008B5FEF75BF8064B03EB80007D
:102EA000036A013B0362036BDB0702D4036A03B9C5
:102EB00062B608BD9001402008B5FEF749F8094BFD
:102EC000820003EB8000016C31B9EFF31081C80779
:102ED00000D472B69818016513441A6C01321A6452
:102EE00008BD00BF9001402008B5FEF731F8064B41
:102EF00003EB8000036C013B0364036DDB0702D42A
:102F0000036C03B962B608BD9001402008B5FEF716
:102F10001FF8094B820003EB8000016E31B9EFF31B
:102F20001081C80700D472B69818016713441A6E4E
:102F300001321A6608BD00BF9001402008B5FEF7B7
:102F400007F8064B03EB8000036E013B0366036F3B
:102F5000DB0702D4036E03B962B608BD90014020BE
:102F600008B5FDF7F5FF0B4B820003EB8000D0F8AE
:102F7000801039B9EFF31081C80700D472B69818E1
:102F8000C0F890101344D3F880200132C3F8802099
:102F900008BD00BF9001402008B5FDF7D9FF084BE0
:102FA00003EB8000D0F88030013BC0F88030D0F8CF
:102FB0009030DB0703D4D0F8803003B962B608BD87
:102FC0009001402008B5FDF7C3FF0B4B820003EBD7
:102FD0008000D0F8A01039B9EFF31081C80700D4F1
:102FE00072B69818C0F8B0101344D3F8A02001327C
:102FF000C3F8A02008BD00BF9001402008B5FDF730
:10300000A7FF084B03EB8000D0F8A030013BC0F8CD
:10301000A030D0F8B030DB0703D4D0F8A03003B92B
:1030200062B608BD9001402008B5FDF791FF0B4B3B
:10303000820003EB8000D0F8C01039B9EFF31081A3
:10304000C80700D472B69818C0F8D0101344D3F84B
:10305000C0200132C3F8C02008BD00BF900140204D
:1030600008B5FDF775FF084B03EB8000D0F8C030C2
:10307000013BC0F8C030D0F8D030DB0703D4D0F823
:10308000C03003B962B608BD9001402008B5FDF715
:103090005FFF0B4B820003EB8000D0F8E01039B9E2
:1030A000EFF31081C80700D472B69818C0F8F0107A
:1030B0001344D3F8E0200132C3F8E02008BD00BF7C
:1030C0009001402008B5FDF743FF084B03EB80005B
:1030D000D0F8E030013BC0F8E030D0F8F030DB074A
:1030E00003D4D0F8E03003B962B608BD90014020A7
:1030F00008B5FDF72DFF0B4B820003EB8000D0F8E5
:10310000001139B9EFF31081C80700D472B69818CE
:10311000C0F810111344D3F800210132C3F8002184
:1031200008BD00BF9001402008B5FDF711FF084B16
:1031300003EB8000D0F80031013BC0F80031D0F83B
:103140001031DB0703D4D0F8003103B962B608BDF3
:103150009001402008B5FDF7FBFE0B4B820003EB0E
:103160008000D0F8201139B9EFF31081C80700D4DE
:1031700072B69818C0F830111344D3F820210132E8
:10318000C3F8202108BD00BF9001402008B5FDF71D
:10319000DFFE084B03EB8000D0F82031013BC0F884
:1031A0002031D0F83031DB0703D4D0F8203103B917
:1031B00062B608BD9001402008B5FDF7C9FE0B4B73
:1031C000820003EB8000D0F8401139B9EFF3108191
:1031D000C80700D472B69818C0F850111344D3F839
:1031E00040210132C3F8402108BD00BF90014020BA
:1031F00008B5FDF7ADFE084B03EB8000D0F8403179
:10320000013BC0F84031D0F85031DB0703D4D0F88F
:10321000403103B962B608BD9001402008B5FDF702
:1032200097FE0B4B820003EB8000D0F8601139B998
:10323000EFF31081C80700D472B69818C0F8701167
:103240001344D3F860210132C3F8602108BD00BFE8
:103250009001402008B5FDF77BFE084B03EB800092
:10326000D0F86031013BC0F86031D0F87031DB0735
:1032700003D4D0F8603103B962B608BD9001402094
:1032800008B5FDF765FE0B4B820003EB8000D0F81C
:10329000801139B9EFF31081C80700D472B69818BD
:1032A000C0F890111344D3F880210132C3F8802173
:1032B00008BD00BF9001402008B5FDF749FE084B4E
:1032C00003EB8000D0F88031013BC0F88031D0F8AA
:1032D0009031DB0703D4D0F8803103B962B608BD62
:1032E0009001402008B5FDF733FE0B4B820003EB45
:1032F0008000D0F8A01139B9EFF31081C80700D4CD
:1033000072B69818C0F8B0111344D3F8A021013256
:10331000C3F8A02108BD00BF9001402008B5FDF70B
:1033200017FE084B03EB8000D0F8A031013BC0F83A
:10333000A031D0F8B031DB0703D4D0F8A03103B905
:1033400062B608BD9001402008B5FDF701FE0B4BA9
:10335000820003EB8000D0F8C01139B9EFF310817F
:10336000C80700D472B69818C0F8D0111344D3F827
:10337000C0210132C3F8C02108BD00BF9001402028
:1033800008B5FDF7E5FD084B03EB8000D0F8C03130
:10339000013BC0F8C031D0F8D031DB0703D4D0F8FE
:1033A000C03103B962B608BD9001402008B5FDF7F1
:1033B000CFFD0B4B820003EB8000D0F8E01139B950
:1033C000EFF31081C80700D472B69818C0F8F01156
:1033D0001344D3F8E0210132C3F8E02108BD00BF57
:1033E0009001402008B5FDF7B3FD084B03EB8000CA
:1033F000D0F8E031013BC0F8E031D0F8F031DB0724
:1034000003D4D0F8E03103B962B608BD9001402082
:1034100008B5FDF79DFD0B4B820003EB8000D0F853
:10342000001239B9EFF31081C80700D472B69818AA
:10343000C0F810121344D3F800220132C3F800225E
:1034400008BD00BF9001402008B5FDF781FD084B85
:1034500003EB8000D0F80032013BC0F80032D0F816
:103460001032DB0703D4D0F8003203B962B608BDCE
:103470009001402008B5FDF76BFD0B4B820003EB7C
:103480008000D0F8201239B9EFF31081C80700D4BA
:1034900072B69818C0F830121344D3F820220132C3
:1034A000C3F8202208BD00BF9001402008B5FDF7F9
:1034B0004FFD084B03EB8000D0F82032013BC0F8F1
:1034C0002032D0F83032DB0703D4D0F8203203B9F1
:1034D00062B608BD9001402008B5FDF739FD0B4BE1
:1034E000820003EB8000D0F8401239B9EFF310816D
:1034F000C80700D472B69818C0F850121344D3F815
:1035000040220132C3F8402208BD00BF9001402094
:1035100008B5FDF71DFD084B03EB8000D0F84032E5
:10352000013BC0F84032D0F85032DB0703D4D0F86A
:10353000403203B962B608BD9001402008B5FDF7DE
:1035400007FD0B4B820003EB8000D0F8601239B905
:10355000EFF31081C80700D472B69818C0F8701243
:103560001344D3F860220132C3F8602208BD00BFC3
:103570009001402008B5FDF7EBFC084B03EB800001
:10358000D0F86032013BC0F86032D0F87032DB070F
:1035900003D4D0F8603203B962B608BD9001402070
:1035A00008B5FDF7D5FC0B4B820003EB8000D0F88B
:1035B000801239B9EFF31081C80700D472B6981899
:1035C000C0F890121344D3F880220132C3F880224D
:1035D00008BD00BF9001402008B5FDF7B9FC084BBD
:1035E00003EB8000D0F88032013BC0F88032D0F885
:1035F0009032DB0703D4D0F8803203B962B608BD3D
:103600009001402008B5FDF7A3FC0B4B820003EBB3
:103610008000D0F8A01239B9EFF31081C80700D4A8
:1036200072B69818C0F8B0121344D3F8A022013231
:10363000C3F8A02208BD00BF9001402008B5FDF7E7
:1036400087FC084B03EB8000D0F8A032013BC0F8A8
:10365000A032D0F8B032DB0703D4D0F8A03203B9DF
:1036600062B608BD9001402008B5FDF771FC0B4B18
:10367000820003EB8000D0F8C01239B9EFF310815B
:10368000C80700D472B69818C0F8D0121344D3F803
:10369000C0220132C3F8C02208BD00BF9001402003
:1036A00008B5FDF755FC084B03EB8000D0F8C0329D
:1036B000013BC0F8C032D0F8D032DB0703D4D0F8D9
:1036C000C03203B962B608BD9001402008B5FDF7CD
:1036D0003FFC0B4B820003EB8000D0F8E01239B9BD
:1036E000EFF31081C80700D472B69818C0F8F01232
:1036F0001344D3F8E0220132C3F8E02208BD00BF32
:103700009001402008B5FDF723FC084B03EB800037
:10371000D0F8E032013BC0F8E032D0F8F032DB07FD
:1037200003D4D0F8E03203B962B608BD900140205E
:1037300008B5FDF70DFC0B4B820003EB8000D0F8C1
:10374000001339B9EFF31081C80700D472B6981886
:10375000C0F810131344D3F800230132C3F8002338
:1037600008BD00BF9001402008B5FDF7F1FB084BF4
:1037700003EB8000D0F80033013BC0F80033D0F8F1
:103780001033DB0703D4D0F8003303B962B608BDA9
:103790009001402008B5FDF7DBFB0B4B820003EBEB
:1037A0008000D0F8201339B9EFF31081C80700D496
:1037B00072B69818C0F830131344D3F8202301329E
:1037C000C3F8202308BD00BF9001402008B5FDF7D5
:1037D000BFFB084B03EB8000D0F82033013BC0F85F
:1037E0002033D0F83033DB0703D4D0F8203303B9CB
:1037F00062B608BD9001402008B5FDF7A9FB0B4B50
:10380000820003EB8000D0F8401339B9EFF3108148
:10381000C80700D472B69818C0F850131344D3F8F0
:1038200040230132C3F8402308BD00BF900140206F
:1038300008B5FDF78DFB084B03EB8000D0F8403353
:10384000013BC0F84033D0F85033DB0703D4D0F845
:10385000403303B962B608BD9001402008B5FDF7BA
:1038600077FB0B4B820003EB8000D0F8601339B973
:10387000EFF31081C80700D472B69818C0F870131F
:103880001344D3F860230132C3F8602308BD00BF9E
:103890009001402008B5FDF75BFB084B03EB80006F
:1038A000D0F86033013BC0F86033D0F87033DB07E9
:1038B00003D4D0F8603303B962B608BD900140204C
:1038C00082B08DF807009DF807300BB900BEFDE708
:1038D00002B070470246003838B518BF0120FFF724
:1038E000EFFF50689A288CBF00200120FFF7E8FF07
:1038F0009368906A022BD46817BFDB02002303F49D
:10390000006343F4005302281EBF410501F4001177
:103910000B43516A02291EBF490401F400310B43D5
:10392000116A02291EBF090401F480310B43916919
:1039300002291EBF090201F480710B43D1690229DB
:103940001EBF890101F040010B43D16A02291EBF4D
:10395000C90401F400210B43516902291EBF8903E8
:1039600001F480410B43116902291EBF490101F096
:1039700020010B4304F00F010B4354B9012808D177
:1039800092F8B800022804D09188244C81F00301F9
:103990000855D2E90001903140F82130D36A012B5B
:1039A00017D01F4B116BD3F80C3641BB526B62B171
:1039B000110449BF42F07F42134342F47F0242F4B4
:1039C000794244BF42F081021340154AC2F80C36D6
:1039D00038BD02F1380302F17804124D53F8040B9C
:1039E000102809D0D96BB1F5CC7F05D800F00F00B5
:1039F00001F5247145F821009C42EFD1D1E708047C
:103A000049BF41F07F410B4341F47F0141F47941CB
:103A100044BF41F081010B40C8E700BF00132940BB
:103A200000C02A4000002940F8B5084B04460E4665
:103A30000025BC27C3E90010A54201D10020F8BD34
:103A400007FB05600135FFF745FFF5E7100540204E
:103A500070B50446003816460D4618BF0120FFF722
:103A60002FFF0F298CBF00200120FFF729FFFFF750
:103A7000F9F9012E13D0022E07D0AEB954F8253033
:103A800023F4006343F4005303E054F8253023F497
:103A9000005344F82530BDE87040FFF7FBB954F8F7
:103AA000253043F42053F4E700BEFDE7F8B50446A3
:103AB00000381E460D4618BF01201746FFF700FFCD
:103AC0000F2906F00F068CBF00200120FFF7F8FE3B
:103AD000FFF7F2F954F82530002F23F4001314BF38
:103AE0004FF40012002244F8253054F825301343D7
:103AF00044F8253054F8253023F00F0344F82530DE
:103B000054F825301E4344F82560BDE8F840FFF71F
:103B1000EBB90F292DE9F04105468CBF00200120AB
:103B20000E4690461C46069FFFF7CAFEFFF7EEF9C9
:103B300085B155F82630B8F1000F23F4002314BFE7
:103B40004FF40022002245F8263055F82630134362
:103B500045F82630102F10D0B4F5CC7F0DD8A30037
:103B600007F00F0703F1804303F52413D3F8402A2D
:103B700022F00F021743C3F8407ABDE8F041FFF787
:103B8000DDB970B50446003816460D4618BF012051
:103B9000FFF796FE0F298CBF00200120FFF790FE53
:103BA000FFF7DEF9032E0FD8DFE806F002121D2220
:103BB00054F8253023F4001344F8253054F8253008
:103BC00043F4002344F82530BDE87040FFF7E4B922
:103BD00054F8253023F4002344F8253054F82530D8
:103BE00043F40013EEE754F8253043F42013E9E7DB
:103BF00054F8253023F42013E4E7F8B504460038E0
:103C0000124B0D4618BF0120D3E90026FFF758FEDE
:103C10000F298CBF00200120FFF752FE0C4B2344DC
:103C20009B0901EB03130021B14202D14FF0FF3099
:103C300009E01046BC3252F8B87C9F4204D1FFF72D
:103C400049FE54F82500F8BD0131EDE7100540208C
:103C5000C0FDD6BFF8B5054600382D4B164618BF37
:103C600001200C46D3E90012FFF72AFE0F2E8CBF6D
:103C700000200120FFF724FE264B4FF0000C2B44C0
:103C80009B0906EB031394453DD00F46BC3151F818
:103C9000B80C984238D13A6807F1780104F17800FD
:103CA000C4E9002397F8B830402284F8B83000F017
:103CB0009BF8402207F1380104F1380000F094F835
:103CC00055F8263003F00F02E260C3F34012226180
:103CD0009A044CBFC3F3C0220222A260C3F3803215
:103CE0006261C3F30022A261C3F38012E261C3F3F5
:103CF00040426262C3F300422262C3F3C042C3F394
:103D00004053E262A362F8BD0CF1010CBBE700BFB7
:103D100010054020C0FDD6BF431E012B10B5044640
:103D200001D900BEFDE7FFF715FA064B012C1A6812
:103D30000CBF42F0010242F00202BDE810401A60DE
:103D4000FFF724BA00402C40F8B506460D4609BBE3
:103D500000BEFDE715F83320022A01D900BEFDE7B9
:103D600014430133B342F5D1FFF726FA1D4A00216F
:103D70002F1D13684FF6FF7C012023EA0403136014
:103D8000B1420AD1174B1A6814431C60BDE8F840D1
:103D9000FFF72EBA00242346E4E715F83130B3B11B
:103DA00057F83120624512D01BB21F2A03EB830360
:103DB0004FEA031303F1402303F5301309D9203AE6
:103DC000D3F804E000FA02F242EA0E025A6001312E
:103DD000D6E7D3F800E000FA02F242EA0E021A60D7
:103DE000F5E700BF00402C4088420DD98B18834274
:103DF0000AD900EB020CBAB1624613F801CD02F801
:103E000001CD9942F9D170470F2A0ED8034602F12D
:103E1000FF3C4AB10CF1010C013B8C4411F8012B21
:103E200003F8012F6145F9D1704740EA01039B0770
:103E300050D1A2F1100370B501F1200C23F00F0551
:103E400001F1100E00F11004AC441B095EF8105C87
:103E500044F8105C5EF80C5C44F80C5C5EF8085C9E
:103E600044F8085C5EF8045C44F8045C0EF1100E43
:103E7000E64504F11004E9D1013312F00C0F01EB17
:103E8000031102F00F0400EB031327D0043C24F0CD
:103E900003064FEA940C1E441C1F8E465EF8045B1A
:103EA00044F8045FB442F9D10CF1010402F00302BA
:103EB00003EB840301EB840102F1FF3C4AB10CF1F6
:103EC000010C013B8C4411F8012B03F8012F6145D3
:103ED000F9D170BD02F1FF3C03469BE72246EBE7B8
:103EE000830730B548D0541E002A3FD0CAB20346DB
:103EF00001E0013C3AD303F8012B9D07F9D1032CD3
:103F00002DD9CDB245EA05250F2C45EA054536D910
:103F1000A4F1100222F00F0C03F1200EE6444FEA48
:103F2000121C03F1100242E9045542E90255103215
:103F30007245F8D10CF1010214F00C0F03EB0212E0
:103F400004F00F0C13D0ACF1040323F0030304338B
:103F5000134442F8045B9342FBD10CF003042CB1F0
:103F6000CAB21C4403F8012B9C42FBD130BD64460D
:103F70001346002CF4D1F9E703461446BFE71A466E
:103F8000A446E0E70001080000010000000109006C
:103F9000000200000000000000000000000000001F
:103FA0000000000000000000000000000000000011
:103FB0000000000000000000000000000000000001
:103FC00000000000000000000000000000000000F1
:103FD00000000000000101000200000001021C00BE
:103FE0000000001001021D00000000200000000081
:103FF00000000000010300000100000001010000BA
:1040000001000000010101000200000001000300A6
:10401000080000000100040010000000010005007D
:104020002000000001000600400000000100070021
:1040300080000000010008000001000001000900EC
:104040000002000001000A000004000001000B0053
:104050000008000001000C000010000001000D002D
:104060000020000001000E000040000001000F00D1
:1040700000800000020004001000000002000500A3
:1040800020000000020006004000000002000700BF
:10409000800000000200080000010000020009008A
:1040A0000002000002000A000004000002000B00F1
:1040B0000008000002000C000010000002000D00CB
:1040C0000020000002000E000040000002000F006F
:1040D000008000000200100000000100020011003A
:1040E00000000200020012000000040002001300A1
:1040F000000008000200140000001000020015007B
:10410000000020000200160000004000020017001E
:1041100000008000010016000000400000000000C8
:10412000000000000000000000000000000000008F
:104130000000000002010000010000000001020078
:10414000040000000001030008000000000000005F
:1041500000000000010017000000800000000000C7
:10416000000000000000000000000000000000004F
:10417000000000000000000000000000000000003F
:10418000000000000000000000000000010201002B
:10419000020000000102020004000000010203000E
:1041A00008000000010204001000000000000000F0
:1041B00000000000000000000000000001020900F3
:1041C00000020000000000000000000000000000ED
:1041D00000000000000000000000000001001F00BF
:1041E0000000008000010600400000000001070000
:1041F0008000000001021400000010000102150000
:10420000000020000102160000004000010217001B
:1042100000008000010218000000000101021900E6
:10422000000000020000000000000000000000008C
:104230000000000001020A000004000001020B005F
:104240000008000001020C000010000001020D0037
:10425000002000000000000000000000000000003E
:10426000000000000000000000000000000000004E
:10427000000000000000000000000000000000003E
:10428000000000000000000000000000000000002E
:10429000000000000000000000000000000000001E
:1042A000000000000000000000000000000000000E
:1042B00000000000010018000000000100000000E4
:1042C00000000000000000000000000000010C00E1
:1042D0000010000000010D000020000001011F007F
:1042E000000000800000000000000000000000004E
:1042F000000000000201130000000800010102009C
:104300000400000001021B00000000080201170069
:1043100000008000020018000000000101010A00F6
:104320000004000000000000000000000000000089
:10433000000000000000000000000000000000007D
:10434000000000000000000000000000000000006D
:1043500000000000010308000001000001001D0032
:104360000000002002001D000000002000000000EE
:10437000000000000000000000000000000000003D
:104380000000000001001C000000001002001B00E3
:104390000000000800000000000000000000000015
:1043A0000000000001021F0000000080000100006A
:1043B00001000000010111000000020001010D00D8
:1043C00000200000000000000000000000000000CD
:1043D00000000000000000000000000000000000DD
:1043E00000000000000000000000000000000000CD
:1043F00000000000000000000000000000000000BD
:1044000000000000000000000000000000000000AC
:104650000000000000000000000000000000000F4B
:104660001800000000000000000000000000003FF3
:104670001800000000003F00100000000000003F94
:104680001800000000000700100000000000001FDC
:104690001800000000003F00100000000000001F94
:1046A0001800000000003F00100000000000001F84
:1046B0001800000000003F00100000000000000093
:1046C0000000000000000000000000000000001FCB
:1046D0001800000000000300100000000000001F90
:1046E000180000000000030010000000000000009F
:1046F0000000000000000000000000000000000FAB
:104700001800000000000700100000000000001F5B
:104710001800000000000100100000000000001F51
:104720001800000000000100100000000000000060
:104730000000000000000000000000000000000079
:104740000000000000000000000000000000000F5A
:104750001800000000000700100000000000000F1B
:104760001800000000000700100000000000000F0B
:104770001800000000000F00100000000000000FF3
:104780001800000000000700100000000000000FEB
:104790001800000000000700100000000000000FDB
:1047A00018000000000007001000000000000000DA
:1047B0000000000000000000000000000000000FEA
:1047C0001800000000000700100000000000000FAB
:1047D00018000000000007001000000000000000AA
:1047E00000000000000000000000000000000000C9
:1047F00000000000000000000000000000000000B9
:1048000000000000000000000000000000000000A8
:104810000000000000000000000000000000000098
:104820000000000000000000000000000000000088
:104830000000000000000000000000000000000078
:104840000000000000000000000000000000000068
:104850000000000000000000000000000000000058
:104860000000000000000000000000000000000048
:104870000000000000000000000000007B000000BD
:10488000070000000000000001000000010000001F
:104890000100000001000000020000000200000012
:1048A00003000000030000000300000003000000FC
:1048B00004000000040000000000000000000000F0
:1048C00000000000000000000000000000000000E8
:1048D00000000000000000000000000000C12D40AA
:1048E00000C32D4000C52D400000000010C12D4028
:1048F00010C32D4010C52D400000000030C12D40D8
:1049000030C32D4030C52D400000000005000000E0
:10491000010000001000000000C02B407B000000E0
:104920007B0000007B000000000000007B00000016
:104930007B0000007B000000000000000E00000073
:10494000050000001000000060C02B400F000000B8
:10495000010000001000000080C02B40110000008A
:104960000100000010000000A0C02B407B000000F0
:104970007B0000007B00000000000000050000003C
:104980007B0000007B0000000E0000000F00000014
:10499000110000007B00000000C02B400000000060
:1049A0000000000060C02B4080C02B40A0C02B4006
:1049B0000000000000002E40020000000000000087
:1049C0000000000000402D4000C02C4000802D4021
:1049D00000832D4040832D4080832D40C0832D4097
:1049E00000842D4040842D4080842D40C0842D4083
:1049F00000852D4040852D4080852D40C0852D406F
:104A000000000000000000000000000000000000A6
:104A10000000000000000000000000000000000096
:104A20000000020000000100000003000000000080
:104A30000000000000000000000000000000000076
:104A40000000000000000000000000000000000066
:104A50000000010000000200040000000000080047
:104A600009001900180000001000160017001300BC
:104A70000000000000003200000000000000000004
:104A80000000000000000000000000000000000026
:104A90000000000000000000000000000000000016
:104AA0000000000000000000000000000000000006
:104AB00000000000000000000000000000000000F6
:104AC00000000000000000000000000000000000E6
:104AD00000000000000000000000000000000000D6
:104AE00000000000000000000000000000000000C6
:104AF00000000000000000000000000000010000B5
:104B000000000000000002000000000000000000A3
:104B10000000000000000000030000000000000092
:104B20000001000000000000000102000000000081
:104B30000000000100000000000000000300000071
:104B40000000000000040000000000070000050055
:104B50000000010000000000000000000000000054
:104B60000000000000000000000300000000000042
:104B700000000616000000000003000610000001FF
:104B800000000400071100000200000000061200EF
:104B900000030000050007130000040000000007E8
:104BA00014000005000000000717000006000000C8
:104BB00000010100060000000000000000000000ED
:104BC00000000001000000000000000001000000E3
:104BD000000100000001000000000A0000000102C6
:104BE0000005000000000001000000000B000000B4
:104BF00001000000000C00000001000000000E0099
:104C000000000000000000000000000100000000A3
:104C10000F00000001000000001000000001000073
:104C2000000011000000010000000012000000015F
:104C3000000000001300000001000000001400004C
:104C40000001000000001500000001000000001637
:104C5000000000010000000017000000010000003B
:104C60000018000000010000000019000000010011
:104C70000000001A00000001000000001B000000FE
:104C800001000000001C00000001000000001D00E9
:104C9000000001000000001E0000000100000000F4
:104CA0001F000000010000000020000000010000C3
:104CB00000002100000001000000002200000001AF
:104CC000000000002300000001000000002400009C
:104CD0000001000000002500000001000000002687
:104CE000000000010000000027000000010000009B
:104CF0000028000000010000000029000000010061
:104D00000000002A00000001000000002B0000004D
:104D100001000000002C00000001000000002D0038
:104D2000000001000000002E000000010000000053
:104D30002F00000001000000003000000001000012
:104D400000003100000001000000003200000002FD
:104D50000300070000000000010000000036000012
:104D600000020400090000000000010000000036FD
:104D70000000000205000800000000000100000023
:104D800000360000000100000000370000000100B4
:104D90000000003800000001000000003A000000A0
:104DA00002070003000000000001000000004100B5
:104DB00000000100000000420000000100000000AF
:104DC0004300000002080004000000000001000091
:104DD0000000440000000100000000470000000146
:104DE000000000004B00000001000000004C00002B
:104DF0000001000000004D00000001000000004E16
:104E000000000001000000004F0000000100000051
:104E100000500000000100000000510000000100EF
:104E200000000052000000010000000053000000DC
:104E300001000000005600000001000000005700C3
:104E40000000010000000058000000010000000008
:104E50005900000001000000006600000001000091
:104E600000006900000001000000006A000000016D
:104E7000000000006B000000020A000A00000000B1
:104E80000001000000006E00000001000000006E44
:104E900000000001000000006E0000000000000A99
:104EA00000000000000400000000000000000100FD
:104EB0000000006F00000001000000007000000012
:104EC00001000000007100000001000000007200FD
:104ED000000001000000007300000001000000005D
:104EE0007A000000020B0001000000000001000039
:104EF00000007B000000020C000200000000000126
:104F0000000000007C0000000100000000800000A4
:104F1000000100000000810000000100000000848A
:104F2000000000010F000B00000000000100000065
:104F30000085000000010000000086000000010064
:104F400000000087000000010000000001000000D8
:104F50000000000100000000000301020400000046
:104F6000010001000000000000000000000000003F
:104F70000000000001000000000000010003010229
:104F8000000000000000010200000000000000001E
:104F90000000000001010000010103020201010103
:104FA000ED1A4000691B4000EF1A4000351B40001D
:104FB0000D1C40000D1C40000F1C4000451C400013
:104FC000A91C4000A91C4000A91C4000AB1C4000CB
:104FD000A91C4000AD1C4000D11C4000FD1D40003C
:104FE000191D4000391D4000651D4000671D40002F
:104FF000951D40006B1E4000691E40006D1E400064
:105000006D1E40006F1E4000751E4000771E400060
:10501000791E4000851F4000030102009D1F4000D3
:105020009D1F40009F1F400061204000A11F4000C5
:10503000B11F400081204000C11F4000D11F40002F
:10504000E11F40009D1F40009F1F4000A520400021
:10505000A7204000A9204000A52040004922400090
:10506000AB204000D12140009D214000A9224000FA
:10507000A9224000AB224000A9224000AF224000FC
:10508000B1224000F9224000C92340009D23400086
:10509000AF2240002524400027244000792540000D
:1050A000792540007B254000C1264000C1254000F5
:1050B000C32540008D284000C127400079254000CD
:1050C0004D294000000029400000000000000000C1
:1050D0000302010D1501000252000406EC554000C8
:1050E000C45540009C5540003455400038544000A1
:1050F0002C544000000000001C5440008C51400023
:10510000000000003C5140000C5140000000000035
:105110000000000001000000006CDC02050000003F
:105120000024F4000E000000006889090F00000050
:1051300000B4C40410000000005A62020500000020
:1051400000000000000000000024F4000000000047
:105150000E00000000000000000000000068890947
:10516000000000000F000000000000000000000030
:1051700000B4C404000000001100000000000000A2
:105180000000000000B4C40400000000170000008C
:1051900001000000180000000100000019000000DC
:1051A000010000001B000000010000001C000000C6
:1051B000010000001D000000010000001F000000B1
:1051C000010000002000000001000000210000009C
:1051D0000100000022000000010000002300000088
:1051E0000100000024000000010000002500000074
:1051F0000100000026000000010000002700000060
:10520000010000002800000001000000290000004B
:10521000010000002A000000010000002B00000037
:10522000010000002C000000010000002D00000023
:10523000010000002E000000010000002F0000000F
:1052400001000000300000000100000031000000FB
:1052500001000000320000000100000033000000E7
:1052600001000000340000000100000035000000D3
:1052700001000000360000000100000037000000BF
:1052800001000000380000000100000039000000AB
:10529000010000003A000000010000003B00000097
:1052A000010000003C000000010000003D00000083
:1052B000010000003E000000010000003F0000006F
:1052C000010000004000000001000000410000005B
:1052D0000100000042000000010000004400000046
:1052E0000100000049000000010000004A00000029
:1052F000010000004B000000010000004D00000014
:10530000010000004E000000010000004F000000FE
:1053100001000000510000000100000052000000E8
:1053200001000000530000000100000054000000D4
:1053300001000000550000000100000056000000C0
:1053400001000000570000000100000058000000AC
:105350000100000059000000010000005A00000098
:10536000010000005B000000010000005C00000084
:10537000010000005D000000010000005E00000070
:10538000010000005F00000001000000600000005C
:105390000100000061000000010000006200000048
:1053A0000100000063000000010000006600000032
:1053B000010000006A000000010000006B00000016
:1053C000010000006C000000010000006D00000002
:1053D000010000006E0000000100000071000000EC
:1053E00001000000730000000100000074000000D4
:1053F00001000000750000000100000076000000C0
:1054000001000000780000000100000079000000A9
:10541000010000007A000000010000000B00000005
:10542000000000000C000000000000000E00000062
:10543000010000000E000000080000000200000053
:105440000000000009000000030000000000000050
:105450000A00000003000000000000000E00000031
:1054600001000000000000000F000000020000002A
:105470000000000010000000040000000000000018
:1054800011000000020000000000000012000000F7
:1054900004000000000000001300000004000000F1
:1054A00000000000140000000100000000000000E7
:1054B0001500000002000000000000001A000000BB
:1054C0000200000000000000430000000100000096
:1054D0000000000045000000010000000000000086
:1054E0004700000001000000000000004C00000028
:1054F0000300000000000000500000000200000057
:105500000000000068000000020000000000000031
:1055100070000000010000000000000072000000A8
:105520000100000000000000770000000100000002
:10553000000000000D000000090000001500000040
:10554000050000001A0000000100000043000000F8
:1055500001000000450000000100000047000000BD
:10556000010000004C00000001000000500000009D
:105570000100000068000000010000006900000058
:105580000600000070000000010000007200000032
:10559000010000007700000001000000070000008B
:1055A00001000000050000000002000000000000F3
:1055B0007801000000000000000000000000000072
:1055C00000000000050000000024F400010031008C
:1055D00000010C0000000000060000000080000038
:1055E00001007D000000000000000000010000003C
:1055F00001000001000000000200000000000000A7
:105600000000000004000000000000000000000096
:105610000600000000004020785640007C56400004
:10562000004040207C5640008057400000C0402091
:1056300080574000805740000000002000084000D4
:10564000080C4000000000008057400080574000D8
:1056500008040020805740008057400003000000ED
:1056600000C0402000C04020104140201041402098
:0856700010004020200540203D
:045678004912400093
:10567C00000000000000000000000000000000001E
:10568C00000000000000000000000000000000000E
:10569C0000000000000000000000000000000000FE
:1056AC0000000000000000000000000000000000EE
:1056BC0000000000000000000000000000000000DE
:1056CC0000000000000000000000000000000000CE
:1056DC0000000000000000000000000000000000BE
:1056EC0000000000000000000000000000000000AE
:1056FC00000000000000000000000000000000009E
:10570C00000000000000000000000000000000008D
:10571C00000000000000000000000000000000007D
:10572C00000000000000000000000000000000006D
:10573C00000000000000000000000000000000005D
:10574C00000000000000000000000000000000004D
:10575C00000000000000000000000000000000003D
:10576C00000000000000000000000000000000002D
:04577C000000000029
:0400000500400C208B
:00000001FF
