:020000040050AA
:100000000000012021045000C1055000C30550002C
:10001000C5055000C7055000C9055000000000008C
:10002000000000000000000000000000CB055000B0
:10003000CD05500000000000CF055000D105500054
:10004000D3055000D3055000D3055000D305500010
:10005000D3055000D3055000D3055000D305500000
:10006000D3055000D3055000D3055000D3055000F0
:10007000D3055000D3055000D3055000D3055000E0
:10040000D3055000D305500000BF00BF00BF00BFA0
:10041000FFF7FABF0000000000000000000000002D
:1004200072B64FF000004FF000014FF000024FF0A5
:1004300000034FF000044FF000054FF000064FF0AE
:1004400000074FF0640001380028FCDC40480168D8
:100450004FF0807201EA02010029F7D03D483E4981
:1004600001603E49086820F0040040F00100086087
:100470003B49086820F0040040F00100086039485A
:1004800080F30888384801684FF00000814200D0AE
:1004900015E036484CF2205101604DF628110160FC
:1004A0003348344901600AE033484CF2205101607E
:1004B0004DF62811016031482E490160FFE73048B0
:1004C000002814D02F4801684FF0010201EA020110
:1004D000002902D02C492D4A01E02D492B4A521AFD
:1004E000013A04DD0020002309C1083AFCDA29485A
:1004F000002809D02849294A521A013A04DD00206F
:10050000002309C1083AFCDA2548002809D025490A
:10051000254A521A013A04DD0020002309C1083A95
:10052000FCDA224800684FF05A318842F9D000F0D6
:100530007BF800F0F7F862B600F0EAF800F038F85F
:1005400000BFFEE7AFF30080AFF30080AFF30080A1
:1005500010C32D4008ED00E00000002094EF00E003
:1005600090EF00E00000012004002640100027402A
:1005700000002740400000FF10C0464000C0464039
:100580000100000000C028400060402000C0402062
:100590002060402001000000000000200000012039
:1005A0000100000000000000008000009860402072
:1005B000024B1A68002AFCD018687047686840200F
:1005C000FEE7FEE7FEE7FEE7FEE7FEE7FEE7FEE703
:1005D000FEE7FEE74FF0E022D2F80C3D23F4E063A3
:1005E0001843C2F80C0D70474309012200F01F00A8
:1005F000403302FA00F04FF0E02242F82300704747
:100600004309012200F01F00603302FA00F04FF0AE
:10061000E02242F823007047090100F1E020C9B24E
:1006200080F80014704700002DE9F8431F4B0025A7
:100630001E68B54207D11E4C00262768B046BE4250
:1006400021D1BDE8F883D3E90101DA680024521A08
:1006500002F0030C9208A24209D101EB820100EBE7
:1006600082020020844508D801350C33E1E751F8B7
:10067000247040F824700134EDE711F8014B01308B
:1006800002F8014BEEE7D4E9013500210136ED1AFD
:100690001846083425F003024FEA950905F0ACFB33
:1006A000AA0718BF40F82980C9E700BFE8775000C3
:1006B00034785000144B0C22F0B5144D1E6802FB28
:1006C0000533B54200D3F0BDD3E90101DA68002457
:1006D000521A02F0030C9208A24209D101EB8201E6
:1006E00000EB82020020844508D801350C33E8E78E
:1006F00051F8247040F824700134EDE711F8014BF3
:10070000013002F8014BEEE7E877500000000000EE
:100710007047FEE7024B586800F00300704700BFC7
:1007200000002640A04B00215B6813F0030F0CBFB4
:1007300001200020F0B54B00013103F18043F02986
:1007400003F51813B3F8802892B242EA0002A3F826
:100750008028F0D14FF0E022D2F8883D43F47003B6
:10076000C2F8883DBFF34F8FBFF36F8F8F4B0024CC
:100770008F491C60D9638F498F4859608F49904DCC
:1007800019649049996001F5800158648E48D860D9
:100790008E4898644FF0D85018618D48D8648D48C1
:1007A00058618D4818658D4898618D4840EA45002C
:1007B0008C4D58658C48D8618C4840EA45059D654C
:1007C0008B4D1D628B4D40EA4500D8654FF080404F
:1007D000586289481866894898624FF0CE405C6636
:1007E000D862874898664FF0D04018638548D8662D
:1007F0004FF0604058638448186799635C67BFF3A3
:100800004F8FBFF36F8FD2F8141D8F0303D4D2F82C
:10081000142DD60366D54FF0E0210022C1F8842DB7
:10082000BFF34F8FD1F8802D43F6E075C2F3C904B2
:10083000C2F34E32520102EA0507204647EA8076AB
:10084000C1F8746FBFF34F8F0138F7D2203A12F11D
:10085000200FF0D1D1F8842D42F00102C1F8842D8F
:100860000022C1F8502FBFF34F8FC1F8842DBFF382
:100870004F8FD1F8802D43F6E0754FF0E021C2F3A1
:10088000C904C2F34E32520102EA0507204647EA84
:100890008076C1F8746FBFF34F8F0138F7D2203ADA
:1008A00012F1200FF0D1D1F8842D42F00102C1F8ED
:1008B000842D0022C1F8502FBFF34F8FD1F8142D93
:1008C00022F40032C1F8142DBFF34F8FBFF36F8FA6
:1008D000D1F8142D22F48032C1F8142DBFF34F8FBC
:1008E000BFF36F8F00224FF0E020114603EB82042C
:1008F000E56BED070AD5C0F8981D013153F8225079
:10090000C9B2C0F89C5DE46BC0F8A04D01320F2A5B
:10091000ECD14FF0E023D3F8942D42F00302C3F85A
:10092000942DBFF34F8FBFF36F8F0022C3F8842D38
:10093000BFF34F8FD3F8802D43F6E074C2F3C900A4
:10094000C2F34E32520102EA0406014646EA8175BC
:10095000C3F8605FBFF34F8F0139F7D2203A12F12D
:10096000200FF0D1BFF34F8FD3F8142D42F4803213
:10097000C3F8142DBFF34F8FBFF36F8FBFF34F8FAB
:10098000BFF36F8F0022C3F8502FBFF34F8FBFF319
:100990006F8FD3F8142D42F40032C3F8142DBFF337
:1009A0004F8FBFF36F8FF0BD0000264020604020C6
:1009B0003F0004100000000029000B071F0008037F
:1009C0000C000000000050000000001023000B1677
:1009D00019000B16000000202100080300604020D1
:1009E00001000B030D0000000080402001000C13EB
:1009F00000C040200D0000002DC004130000604026
:100A00001300041335000B032700041370472DE96E
:100A1000F047BD4F01210446386001F0FBFC3B6804
:100A2000002B40F04981E57AB84EDFF80C83DFF8FF
:100A30000C93002D40F04781A57BB54EDFF8008375
:100A4000DFF8F892002D40F04E81A57AB14EDFF824
:100A5000F482DFF8E892002D40F08681667AAE4D90
:100A6000DFF8E482DFF8D492002E40F08E81354624
:100A7000DFF8B082DFF8D492DFF8C0A2237AAB426D
:100A800000F294810025DFF89082DFF8BC92DFF855
:100A9000ACA2637AAB4200F29B8100250221386848
:100AA00001F0B8FCE27BEBB29A4200F2A3813D79FF
:100AB000002D44D1DFF874820123294628463B717A
:100AC000D8F804309847D8F808307A20DFF8408208
:100AD0009847924B28461B689847914B28461B68BD
:100AE00098478D4B28461B689847D8F8043028460D
:100AF0009847D8F80830DFF838827A209847284697
:100B0000D8F8003098472946D8F804307A2098471A
:100B1000844BDFF8008228461B689847D8F80430D9
:100B200028469847D8F808307A209847774B2846C7
:100B30005B6898477C4B294628461B6898470123E9
:100B4000E27C9A4200F260810025774FDFF8008254
:100B5000DFF8E891637CAB4200F25E810025704FC4
:100B6000DFF8F081DFF8D491637BAB4200F265815E
:100B700000256A4FDFF8E081DFF8C091237BAB42AC
:100B800000F26B810025664FDFF8C881DFF8AC9179
:100B9000637BAB4200F2718100255E4FDFF8A481D8
:100BA000DFF89891A37AAB4200F2788100255F4F7D
:100BB000DFF88081DFF88491A37CAB4200F2808172
:100BC0000025554FDFF88081DFF87091637AAB42E2
:100BD00000F2888100254F4FDFF86881DFF85C91D3
:100BE000A37AAB4200F290810025494FDFF8508193
:100BF000DFF84891A37BAB4200F29881DFF85C817B
:100C00000123414F00257A21042087F88130D8F84C
:100C1000003087F87F5087F8805087F882509847D7
:100C200001F03CFCD8F800307A2105209847D8F82C
:100C300000307A2106209847DFF8D09001F00DFCB3
:100C4000DFF8F4A0D8F800307A21DFF8148107200B
:100C50009847E37AAB4200F27B8197F87F50002DF2
:100C600040F0B181324FDFF8FC80DFF8D090237C78
:100C7000AB4200F288812D4D2E4FDFF8C080A37C5F
:100C8000B34200F2908120460421BDE8F04701F014
:100C9000C1BB1422E06B6A4301358358104403EB57
:100CA000C3034B445B7818F803301B01F358984793
:100CB000A37CAB42EDD8B6E600251C4EDFF874806D
:100CC000DFF87890F4E7206A013D50F8353000EB0A
:100CD000C50003EBC3034B445B7818F8033056F8A8
:100CE00033309847A5E6013DE06A0C222B01C3583A
:100CF00000EB051003EBC3034B445B7818F803309B
:100D00005343F35898479DE69C604020AC6F5000D9
:100D10000C6F50007C6F5000D06E5000B06E5000D1
:100D2000C06E50002C6F5000A46F50005C6F5000DC
:100D3000186F5000546E5000666E50000A6A5000E2
:100D4000786E50006F6E5000936E50008A6E5000A7
:100D50005D6E50009C6E5000A56E500000604020FB
:100D60009C675000816E5000013D2822E0691421EB
:100D70006A438358104403EBC3034B445B7818F871
:100D800003304B43F358984765E61421013EA069B0
:100D900001FB06F28358104403EBC3034B445B781A
:100DA00018F803304B43EB5898475DE60C21606917
:100DB00001FB05F201358358104403EBC303534490
:100DC0005B7819F803304B4358F80330984755E6E1
:100DD0001421A06901FB05F201358358104403EB8F
:100DE000C30353445B7819F8033001FB03835B684A
:100DF00098474EE6226B013502EBC30152F83300EF
:100E0000496800F018FC4DE6226C52F833203A4451
:100E100053710133DBB293E61422A06B29466A4377
:100E200001358358104403EBC3034B445B7818F837
:100E3000033057F8233098478CE60C22A06A6A43A7
:100E400001358358104403EBC3034B445B7818F817
:100E5000033057F83330984786E60C22606A6A43BD
:100E600001358358104403EBC3034B445B7818F8F7
:100E7000033057F82330984780E60C22A06A6A4373
:100E800001358358104403EBC3034B445B7818F8D7
:100E9000033007EBC3035B68984779E62822E069D3
:100EA00014216A4301358358104403EBC3034B44B8
:100EB0005B7818F8033001FB03735B68984771E6B1
:100EC0001422E06B29466A4301358358104403EB32
:100ED000C3034B445B7818F8033007EB03135B68DC
:100EE000984769E61421A06901FB05F20135835892
:100EF000104403EBC3034B445B7818F8033001FB49
:100F000003739B68984761E62822E06914216A43CD
:100F100001358358104403EBC3034B445B7818F846
:100F2000033001FB0373DB68984759E6E06A2B0145
:100F30000C22C35800EB0510013503EBC3034B44EF
:100F40005B7818F8033002FB03735B68984751E63F
:100F5000226A02EBC500436858F82330032B0ED0F9
:100F600052F83530194A03EBC30313445B781AF87F
:100F7000033009EBC3035B689847013569E6012339
:100F800087F87F30F9E7606B50F8353000EBC5002B
:100F9000013503EBC3034B445B7818F8033057F873
:100FA0003330984763E61422E06B7243013683586E
:100FB000104403EBC30343445B78FB5C05EB031372
:100FC000DB6898475BE6BDE8F08700BF0A6A50001F
:100FD0002DE9F047204F00250224204EDFF88C80B9
:100FE00096F88130AB421DD86CBB1D4F2546DFF80B
:100FF0008080DFF88090DFF86CA096F882309D4208
:1010000021D257F8040B0C2200EBC00353445B7849
:1010100019F8033002FB03839B689847012811D01D
:101020000135EAE757F8040B0E4B00EBC0021344FE
:101030000D4A5B78D35C142202FB03839B689847BC
:10104000012803D101242046BDE8F087022805F1DC
:10105000010508BF0024C3E7986750009C6040204A
:10106000946750000A6A50006F6E50007C6F500009
:101070000C6F5000786E50002DE9F0412F4C236822
:101080002BBBBDE8F0811B6A03EBC500426856F834
:101090002220032A0CD153F83530294A03EBC3032D
:1010A00013445B7818F8033007EBC3035B68984779
:1010B00001352368DA7A9542E5D394F87F30002B26
:1010C000DFD000251F4E204FDFF8748013E000258D
:1010D0001E4E1F4FDFF88480EBE7586B50F8353019
:1010E00000EBC500013503EBC30343445B78FB5CB5
:1010F00056F83330984723681A7C9542EDD3002583
:10110000144E154FDFF838802068837C9D4204D34D
:101110000421BDE8F04101F07DB91422C06B6A439F
:1011200001358358104403EBC30343445B78FB5CF5
:1011300006EB0313DB689847E6E700BF9C6040209E
:101140000A6A5000186F5000816E50009C67500072
:10115000AC6F50005C6F5000546E5000666E5000D3
:1011600010B5FFF754FC074B93F87F402CB1FFF705
:101170002FFF044618B9FFF77FFF204610BD01245A
:10118000FBE700BF9C604020054A00EBC00313440E
:10119000044A5B78D25C044B03EB02139B6818474C
:1011A0000A6A5000546E50005C6F5000014B18608A
:1011B000704700BF00604020064A00EBC0030121D9
:1011C0001344054A5B78D25C044B03EBC2035B68B3
:1011D000184700BF0A6A5000816E5000186F500017
:1011E000064A00EBC00300211344054A5B78D25C39
:1011F000044B03EBC2035B68184700BF0A6A500048
:10120000816E5000186F500008B5044B0221186819
:1012100001F000F9BDE8084001F0D0B89C60402022
:1012200008B5044B0221186801F0F4F8BDE8084045
:1012300001F0CCB89C60402008B5044B022118682E
:1012400001F0E8F8BDE8084001F0CEB89C6040200D
:1012500008B5044B0221186801F0DCF8BDE808402D
:1012600001F0CAB89C604020014B1B68184700BFC2
:1012700000604020F8B5074600200E4614461D4683
:1012800001F0A0FE002138602846316001F0A1FE87
:101290002060F8BD38B50C460021154601F094FEDB
:1012A00023681844A842206034BF0020012038BDC4
:1012B000704710B5D0B14368C3B10268013B0C4917
:1012C00002EBC2021B04885C8C180A4A03F47023E8
:1012D000617952F8302002EB8102D2F8801021F4BB
:1012E00070210B4343F00043C2F8803010BD00BFB3
:1012F0000A6A5000CC68500098B10368094A03EBB1
:10130000C303D25C084B53F8321043688A68012B40
:1013100022F0FC4238BF01235B0603F0FC43134379
:101320008B6070470A6A5000CC685000F0B50646E2
:1013300085B000283FD002681425224802EBC20283
:1013400073688118805C0A794C7905FB00221E487D
:1013500050F8225073B18F7805EB84001B49013B94
:10136000826801EB0711CF688968BB4053400B408E
:10137000534083604CF2503303AA02A901A8FFF73F
:1013800079FFEF6B02A9039A01A8FFF783FFFB0720
:1013900006D50028F5D031680120FFF765FF0AE087
:1013A0000028F8D124B2736805EB84042BB1A3683C
:1013B00043F00043A36005B0F0BDA36823F00043F1
:1013C000F8E700BF0A6A5000E868500074655000F2
:1013D000704780B103680A4A03EBC303D118D25C9B
:1013E0000B79142101FB0233064A52F8233042687C
:1013F00012B101225A6370475A6B22F00102F9E7D9
:101400000A6A5000E86850007FB5044640B343685C
:1014100033B3036801A8134A03EBC303D118D25CAA
:101420000B79142101FB02330F4A02A952F8235011
:10143000012303AAAB634CF25033FFF71BFFEE6BA3
:1014400002A9039A01A8FFF725FFF30706D5002894
:10145000F5D021680120FFF707FF01E00028F8D14F
:1014600004B070BD0A6A5000E868500070477047C9
:1014700058B10368054A03EBC303D25C044B53F82D
:101480002220136823F00103136070470A6A50009A
:10149000DC685000E0B10389D3B103680D4A03EB67
:1014A000C303D25C0C4B53F822104389427B1B04CC
:1014B000120603F47F0302F080721343027B43EAB7
:1014C000C273827B1201D2B2134343F001030B605B
:1014D000704700BF0A6A5000DC685000054B00EB03
:1014E000C0001A5C044B53F82220136823F0010358
:1014F000136070470A6A5000DC68500070B10389BD
:10150000012B0BD10368064A03EBC303D25C054BE6
:1015100053F82220136843F001031360704700BFA3
:101520000A6A5000DC685000A2E780B1038973B1F9
:101530000368074A03EBC303D25C064B53F822202F
:1015400043891B0403F47F0343F0010313607047D6
:101550000A6A5000DC6850007FB5044618B303895E
:101560000BB3037B016803BB01EBC101124B03AA60
:1015700001A85D5C4CF2503302A9FFF77BFE0F4BD4
:1015800053F825506E6802A9039A01A8FFF782FE5E
:10159000002E06DB0028F5D021680120FFF764FE4D
:1015A00001E00028F8D104B070BD022004B0BDE80D
:1015B0007040FFF759BE00BF0A6A5000DC68500057
:1015C0007FB5044628B303891BB3437B0BB3037B6E
:1015D000016803BB01EBC101124B03AA01A85D5CCA
:1015E0004CF2503302A9FFF745FE0F4B53F825503C
:1015F0006E6802A9039A01A8FFF74CFE002E06DBD5
:101600000028F5D021680120FFF72EFE01E0002818
:10161000F8D104B070BD022004B0BDE87040FFF7FF
:1016200023BE00BF0A6A5000DC6850007047704754
:101630007047002070477047704770472DE9FF41A1
:101640000446002873D003683A4A03EBC303818839
:101650001344394A9B7912F8336002EBC302374BCB
:101660005778556853F82630002930D053F82710A2
:1016700029425CD153F82710DFF8C880294343F88A
:1016800027102F4B53F826301A6842F001021A60D7
:101690005A6842F001025A6000F086FD4CF2503365
:1016A00003AA02A901A8FFF7E5FD039A02A901A870
:1016B000FFF7F0FD58F8263053F827302B4234D18D
:1016C0000028F2D021680120FFF7CEFD2FE053F86B
:1016D000271029422BD053F82710DFF8688021EA21
:1016E000050143F82710164B53F826301A6842F0CC
:1016F00001021A605A6842F001025A6000F054FD7B
:101700004CF2503303AA02A901A8FFF7B3FD039AD4
:1017100002A901A8FFF7BEFD58F8263053F827307C
:101720002B4202D00028F2D0CCE70028CAD104B066
:10173000BDE8F0810A6A50009C5E500014685000B9
:10174000F46750000468500007B581F00101009073
:101750006846ADF80410FFF771FF03B05DF804FBB5
:1017600070477047024A936843F0010393607047E3
:1017700000002D40024A936823F0010393607047F4
:1017800000002D40024AD36843F48073D360704751
:1017900000802C40024AD36823F48073D3607047E2
:1017A00000802C40F0B5044685B000282BD0C379CA
:1017B000013BDBB2022B26D8174A526E520F052A84
:1017C00023D1164A02A9164E01A8D55C4CF250331B
:1017D00003AAFFF74FFDD6F8887102A9039A01A862
:1017E000FFF758FD002F06DB0028F4D02168012008
:1017F000FFF73AFD07E00028F8D1074A536E23F0BF
:1018000003031D43556605B0F0BD01680A2005B00D
:10181000BDE8F040FFF728BD00C03940286F5000F8
:1018200000C02D4030B18288054B22B19A6842F049
:1018300001029A6070479A6822F00102F9E700BF3E
:1018400000002D4030B18288054B22B1DA6842F4A5
:101850008072DA607047DA6822F48072F9E700BFBC
:1018600000802C4000F0E0B8704770477047F0B53A
:10187000002869D00268354B02EBC204344E234481
:101880001B7A06EB0316D0E9025300796A40F4682C
:101890005A4042402F4850F82170974253D040F8A8
:1018A00021202D4A2D481268116C7268825C01EB70
:1018B000C2025268B2F57A7F45D3B668805D01EB0B
:1018C000C0014968B1F57A7F3DD3B3F57A7F3AD349
:1018D0004FF47A7640F2C737B2FBF6F2B1FBF6F17D
:1018E000B3FBF6F302EB420057430A26B0FBF1F0DC
:1018F00002EB82010130B1FBF3F10931884238BFBC
:10190000084640F2F3314343704359436060B1FBF2
:10191000F7FC07FB1C117143B1FBF7F140F2DD3717
:1019200006FB0C117B4340F2094704317A43A16066
:10193000B3FBF2F702FB17337343B3FBF2F306FB7F
:101940000733033BE3606561F0BD00BF0A6A5000E6
:1019500024685000206140209C604020A16040200D
:1019600078B10368094A03EBC303017913441A7A77
:10197000074B03EB0213DA68136819B143F0010354
:101980001360704723F00103FAE700BF0A6A5000B2
:10199000246850007FB500EBC0021A4B0546134483
:1019A0001A7A194B03EB0213DC6801F0BFFF2368BE
:1019B000DA071BD54CF2503303AA02A901A8FFF79E
:1019C00059FC266902A9039A01A8FFF763FCF306F4
:1019D00006D40028F5D029460120FFF745FC01E098
:1019E0000028F8D1236823F001032360636923F002
:1019F0000F036361236943F00303236101F0AEFF2A
:101A000004B070BD0A6A50002468500008B1006834
:101A1000C0E77047034B53F82030186900F003000B
:101A2000704700BFB0685000F8B50D4D00240D4E52
:101A30000D4F55F8042B3168136903F0030361B1AE
:101A400051690B4005D057F8241000201361FFF7AF
:101A50000BFC0134072CECD1F8BD1361F9E700BF92
:101A6000B06850009C60402094685000704702208D
:101A70007047704710B590B103680E4A03EBC3037B
:101A8000D25C0D4B03EBC20153F8322000230C79DA
:101A9000D9B28C4204D8136843F00043136010BDE0
:101AA00002EB83000133D0F8801021F00041C0F830
:101AB0008010EDE70A6A5000CC68500010B500288D
:101AC00044D08388002B41D00368214A03EBC30331
:101AD000047DD25C1F4B53F83220437B91681B037B
:101AE00021F4E14103F4E04321F07F012343448AE0
:101AF0000B431949C4F30E04936013691940037F23
:101B00009B0703F0804323430B431361447D837D94
:101B1000A107002C4FEA437301F0804103F000530A
:101B200043EA0103418B008BC1F30A0143EA01033D
:101B30000A4901EA004143EA0103D3600CBF802354
:101B400000239361136823F00043136010BD00BFAE
:101B50000A6A5000CC6850000080FFBF0000FF03FD
:101B600070B18388012B0BD10368064A03EBC303D2
:101B7000D25C054B53F83220136823F00043136006
:101B8000704700BF0A6A5000CC6850007FB500EB78
:101B9000C003134A0446D25C124B53F832502B68F0
:101BA000002B1BDB4CF2503303AA02A901A8FFF75C
:101BB00061FB6E6802A9039A01A8FFF76BFB73072C
:101BC00008D40028F5D001202146FFF74DFB012065
:101BD00004B070BD0028F6D10220F9E70020F7E735
:101BE0000A6A5000CC6850007047F0B500287FD0DA
:101BF000C468026806694A4FD0E901C584EA020058
:101C0000704080EA0C0080EA050357F821009842F2
:101C10006ED047F8213002EBC202424B04EBC40401
:101C200041481B68414902441B6C497810F804E0A4
:101C300003EBC103D0793E4A5F6805FB0CF340F625
:101C4000381C3C4CB6FBF2F6B7FBF2F73A4A0CFBF9
:101C500006FC54F82E405343B3FBFCF2642A48D8E8
:101C6000634534BF11460C21052A08D90A2A54D9E4
:101C70000F2A50D9142A8CBF4FF47A71B8214FF42F
:101C8000FA1307FB01FC03FB06F2B3FBF1F3B2FB13
:101C9000FCF2D21A4FF0804C02F5807294452BD89A
:101CA0000023BCF1000F2AD19B007D43BF33ADB2AE
:101CB000DA09256000EB400502FB01F3C9B204EB31
:101CC000850541EA034102FB03330C2269604FF4AE
:101CD0007A715B0802FB00404E4303F2E733B6FB28
:101CE000F7F7013FC3F31303C7F31307AF60C360F4
:101CF000F0BD4FF47A71C2E74FEA9C0CCEE70CEBD3
:101D0000030E96459CBF03EB4C03A2EB0E024FEA79
:101D10009C0C5B08C5E77021B1E73021AFE700BF3D
:101D2000306140209C6040200A6A5000A160402041
:101D300040420F00E4685000A0860100704710B5D3
:101D4000C0B103680C4803EBC3030C4CC1188A787C
:101D50001201A458C25C0B79142101FB0233084A1A
:101D600052F82330196841F0080119601A6822EA14
:101D700004021A6010BD00BF0A6A5000746550006A
:101D8000E8685000DBE72DE9FF41044600286ED0EB
:101D9000384A394ED0E90031384803EBC30332F8F2
:101DA0001150C1188A78170106EB0212F759D2F8C0
:101DB0000480C25C0B79142101FB0233304A52F8D3
:101DC000236073683B4023FA08F3AB424FD04CF2D8
:101DD000503303AA02A901A8FFF74CFA02A9039AFB
:101DE00001A8FFF757FA7368D90304D50028F5D086
:101DF0002168012039E00028FAD1336805FA08F596
:101E000003AA02A95D4001A83D405D404CF2503359
:101E100045F007053560FFF72DFA039A02A901A8DE
:101E2000FFF738FA73685A0702D40028F5D0DFE7C5
:101E30000028DDD14CF2503303AA02A901A8FFF714
:101E400019FA039A02A901A8FFF724FA7368DB03C1
:101E500002D50028F5D0CBE70028C9D17368C3F3B9
:101E60004243012B03D021680320FFF7FDF904B0A2
:101E7000BDE8F08164695000746550000A6A500042
:101E8000E86850002DE9FF41044600286ED0394A29
:101E9000394ED0E90031394803EBC30332F8115011
:101EA000C1188A78170106EB0212F759D2F804809C
:101EB000C25C0B79142101FB0233314A52F82360D2
:101EC00073683B4023FA08F3AB424FD04CF25033D7
:101ED00003AA02A901A8FFF7CDF902A9039A01A854
:101EE000FFF7D8F97368D90304D50028F5D0216825
:101EF000012039E00028FAD1336805FA08F503AA71
:101F000002A95D4001A83D405D404CF2503345F0D0
:101F100004053560FFF7AEF9039A02A901A8FFF79F
:101F2000B9F973685A0702D40028F5D0DFE7002812
:101F3000DDD14CF2503303AA02A901A8FFF79AF9A8
:101F4000039A02A901A8FFF7A5F97368DB0302D57C
:101F50000028F5D0CBE70028C9D17368C3F342430A
:101F6000012B03D021680320FFF77EF904B0BDE800
:101F7000F08100BF64695000746550000A6A500027
:101F8000E86850002DE9FF410546002855D02C4A4D
:101F90002C4CD0E900312C4803EBC30332F811601C
:101FA000C1188A78170104EB0212E759D2F80480AD
:101FB000C25C01A80B79142101FB0233234A02A958
:101FC00052F8234003AA236843F00C0323604CF229
:101FD0005033FFF74FF9039A02A901A8FFF75AF906
:101FE00063689A0304D50028F5D0296801201FE012
:101FF0000028FAD1236806FA08F603AA02A95E406F
:1020000001A83E405E402660236823F00C03236055
:102010004CF25033FFF72EF9039A02A901A8FFF7FB
:1020200039F963689B0306D40028F5D0296803209A
:10203000FFF71AF901E00028F8D104B0BDE8F081FB
:1020400064695000746550000A6A5000E8685000E6
:102050002DE9FF41064600283DD003681F4A20486D
:10206000D55C03EBC3031F4CC1188A78170104EB3E
:102070000212E759D2F80480C25C01A80B7914213E
:1020800001FB0233184A02A952F8234003AA23682D
:1020900043F00C0323604CF25033FFF7EBF8039A44
:1020A00002A901A8FFF7F6F863689B0306D500288C
:1020B000F5D031680120FFF7D7F80CE00028F8D1FF
:1020C000236805FA08F55D403D405D4025602368C2
:1020D00023F00C03236004B0BDE8F0819069500048
:1020E0000A6A500074655000E86850004068064B6A
:1020F000064933F810304A681B0322F4405203F4B7
:10210000405313434B6070473869500000802840AB
:1021100008B1FFF7EBBF70471A4B1B4A1B68927B55
:102120001B6C03EBC203194A5B6893421AD8184A26
:10213000934220D9174A93421FD9174A934294BF1A
:10214000032304231549CA6822F41F4242EA0323E9
:10215000BFF34F8FBFF36F8FCA6822F40042CA608B
:10216000CB6070470E4A934209D90E4A934294BFFE
:1021700006230723E6E70123E4E70223E2E705233A
:10218000E0E700BF9C604020A1604020C037F40918
:102190008014EF0300E1F505406BED0700C02E4011
:1021A00000C2EB0B404CE30D034B45F6F0221A60E6
:1021B0004AF20F521A60704700C02D401FB57E4C86
:1021C000D4F81433DA012CD4D4F8343302A901A89A
:1021D00043F08073C4F83433D4F8003343F0010380
:1021E000C4F80033D4F8043343F00103C4F80433D3
:1021F000FFF7DAFF4CF2503303AAFFF73BF8039ADC
:1022000002A901A8FFF746F8D4F81433DB0106D47D
:102210000028F4D007210120FFF726F801E000286C
:10222000F8D1654CD4F8143398022CD4D4F8343354
:1022300002A901A843F40013C4F83433D4F80033DE
:1022400043F00103C4F80033D4F8043343F001032E
:10225000C4F80433FFF7A8FF4CF2503303AAFFF78A
:1022600009F802A9039A01A8FFF714F8D4F8143367
:10227000990206D40028F4D005210120FEF7F4FFCE
:1022800001E00028F8D14C4CD4F814331A032CD4B4
:10229000D4F8343302A901A843F40023C4F834333A
:1022A000D4F8003343F00103C4F80033D4F8043306
:1022B00043F00103C4F80433FFF776FF4CF25033C8
:1022C00003AAFEF7D7FF039A02A901A8FEF7E2FFCF
:1022D000D4F814331B0306D40028F4D006210120BF
:1022E000FEF7C2FF01E00028F8D1334CD4F81433D4
:1022F00018042CD4D4F8343302A901A843F40043C1
:10230000C4F83433D4F8003343F00103C4F8003385
:10231000D4F8043343F00103C4F80433FFF744FF57
:102320004CF2503303AAFEF7A5FF02A9039A01A8B5
:10233000FEF7B0FFD4F81433190406D40028F4D003
:102340007A210120FEF790FF01E00028F8D11A4C15
:10235000D4F81033DA012CD4D4F8303302A901A810
:1023600043F08073C4F83033D4F8003343F00103F2
:10237000C4F80033D4F8043343F00103C4F8043341
:10238000FFF712FF4CF2503303AAFEF773FF039AD4
:1023900002A901A8FEF77EFFD4F81033DB0106D4B2
:1023A0000028F4D07A210120FEF75EFF01E000282A
:1023B000F8D104B010BD00BF00C02D40024B012079
:1023C0001B689B68184700BF346140201FB501237C
:1023D00001A8ADF80830034B1B685B68984705B04F
:1023E0005DF804FB34614020024B03205B689B686E
:1023F000184700BF346140201FB5012301A8ADF884
:102400000830034B5B685B68984705B05DF804FBD8
:1024100034614020012915D0022915D10B4A137AC5
:1024200093B901230A480B491372C37803EB4303A2
:1024300001EB83035360837803EB430301EB8301D8
:1024400011607047FFF7BABE704700BF346140208B
:102450008A6E50002C6F50005EE6FFF7FDBF0C4AFD
:102460000C4812680368126C10B50B4CA17BE47B1E
:1024700002EBC10102EBC4024968526891428ABF73
:1024800023F0400323F0010343F00103036010BD78
:102490009C60402000402640A1604020FFF7DFBF45
:1024A00070472DE9F0418046074C0F4616461D4601
:1024B000FEF730F924F81080204407720673057483
:1024C0000020BDE8F08100BF3E6140202DE9F041D1
:1024D000094C1D4680460F461646FEF71BF904EBD5
:1024E00040032044A3F81480077780F8206080F828
:1024F00024500020BDE8F0813E6140202DE9F041EC
:102500000A4C1D4680460F461646FEF703F904EBBB
:1025100040032044A3F8288080F8307080F83460AD
:1025200080F838500020BDE8F08100BF3E614020B7
:10253000704700BF2DE9F843DFF8549080460F46FE
:102540001D461646FEF7E6F839F810300446DFF867
:1025500044E04345DFF840C00C4915D11EF8003077
:10256000BB4211D11CF80030B3420DD10A5C531BA1
:1025700058425841002329F814300EF804300CF862
:1025800004300B55BDE8F8830020F3E74E6140208E
:102590003E614020466140204A6140202DE9F843D9
:1025A000DFF8549080460F461D461646FEF7B2F8F7
:1025B00039F810300446DFF844E04345DFF840C006
:1025C0000C4915D11EF80030BB4211D11CF8003067
:1025D000B3420DD10A5C531B58425841002329F8DD
:1025E00014300EF804300CF804300B55BDE8F883B5
:1025F0000020F3E762614020526140205A61402090
:102600005E6140202DE9F843DFF8549080460F4684
:102610001D461646FEF77EF839F810300446DFF8FE
:1026200044E04345DFF840C00C4915D11EF80030A6
:10263000BB4211D11CF80030B3420DD10A5C531BD0
:1026400058425841002329F814300EF804300CF891
:1026500004300B55BDE8F8830020F3E77661402095
:10266000666140206E6140207261402070B50E4E60
:10267000FEF750F80D4D36F810300D4C0D4983B96A
:102680002B5C73B9235C63B90B5C003B18BF01235F
:10269000002226F810202A5422540A5483F0010004
:1026A00070BD0123F4E700BF3E6140204661402039
:1026B0004A6140204E61402070B50E4EFEF72AF868
:1026C0000D4D36F810300D4C0D4983B92B5C73B9A4
:1026D000235C63B90B5C003B18BF0123002226F882
:1026E00010202A5422540A5483F0010070BD0123A3
:1026F000F4E700BF526140205A6140205E614020F3
:102700006261402070B50E4EFEF704F80D4D36F8AC
:1027100010300D4C0D4983B92B5C73B9235C63B940
:102720000B5C003B18BF0123002226F810202A541E
:1027300022540A5483F0010070BD0123F4E700BF66
:10274000666140206E6140207261402076614020C9
:102750000C4B53F8203000209960596A9882C96860
:102760000988082901D81A837047102906D851080A
:1027700012F0010F18BF013119837047910812F050
:10278000030FF7E77C6140202DE9F0417B4F0546C0
:1027900057F820305A68022A40F0ED80784A52F803
:1027A00020406269616912F4C05201F47C51616198
:1027B00040F0DF80E16D11F4E02FC1F3024C34D022
:1027C000198B988A091A8C45C8BF5FFA81FC20B919
:1027D00093F82910013183F829109968002963D0F2
:1027E0005E6AF6683688082E4CD9102E58D901EB4F
:1027F00080010020C6B2B4450FD9666F013041F8A0
:10280000046BF7E79868D4F874E00844013100F8E5
:1028100006E0C8B29E8A8445F4D8998A61449982B8
:1028200093F829108C4483F829C093F829C0BCF18F
:10283000000F3DD10026998A1A8B914202D0002EBA
:1028400000F099801B7F03B13EB102F05FF823696D
:1028500023F00103236102F075F8002E4FF000030E
:1028600018BF0322A36108BF012257F8253014BF07
:10287000012100215A601B69002B7CD02846BDE84D
:10288000F04118470021C4E70644D4F874E0013051
:1028900021F816E05FFA80FE9E8AF445F4D8BCE782
:1028A0000020F7E7606F0131C8B28445FAD8B4E779
:1028B000598BD88A81424BD0091A57F82500466AAD
:1028C0008C45D6F80CE0C8BFC9B2C668D8BF61460F
:1028D00046B9DEF804E0D6B2B1420ED90132C4F8EE
:1028E00064E0F8E7BEF80080B0F816E0B8F1080F31
:1028F00013D85FFA82F8414507D8C28A0A44ACEB84
:102900000101C28283F8291094E706EB0208013224
:1029100018F80E80C4F86480EBE7B8F1100F12D9F4
:102920005FFA82F84145E8D902EB0E08013256F809
:102930002880C4F86480F3E702EB0E08013236F811
:102940001880C4F864805FFA82F84145F4D8D4E76F
:10295000A2691E7F22F00102A261002E7FF46AAFFD
:10296000226E92027FF566AF226E22F4401222663A
:1029700061E701265FE7BDE8F08100BF7C61402090
:10298000D46F50002C4B2DE9F04153F820400F46F6
:102990002A4B164653F820506B6ADB6893F8028086
:1029A0006B7FD3B101F080FF236923F00103236122
:1029B000636A226942F002022261226922F0020265
:1029C00022616362636963616B6A5B682364226985
:1029D00042F00102226101F083FF6B6ADA689B68B2
:1029E000128843EAC853511EC1F30B010B43697FA0
:1029F00079B12366082A95F82930EF6003F1FF3397
:102A000085F829304FF00003EB8207D86E83BDE8CC
:102A1000F081990248BF43F48013EAE7102A06D8F0
:102A2000730816F0010F18BF01336B83EFE7B3088B
:102A300016F0030FF7E700BFD46F50007C61402011
:102A40000A4951F820305B68022B0CD0084B53F830
:102A50002020136943F002031361002341F8203062
:102A60001846136170470120704700BF7C61402009
:102A7000D46F50002DE9F04F2DED028B85B08046CC
:102A80008B460021109808EE102A1E46DFF820928F
:102A900000F09FFA98F80070844B002559F8274001
:102AA00053F827A00190039501F068FE6268022A9E
:102AB00007D101F07FFE012005B0BDEC028BBDE81F
:102AC000F08F0222C4F82480626001F073FE0422B9
:102AD000CAF81C5059463846CAF8185084F82920BC
:102AE0003246FFF74FFF324618EE101A3846FFF70E
:102AF0002FFE284600F066FA0390A08A218B8842B8
:102B000006D1002E00F0CE80012300206360D3E7C1
:102B1000DAF85C3013F4E02FC3F3024239D0091A1B
:102B20008A42C8BFCAB220B994F82910013184F88A
:102B3000291059F827108D68002D5BD0486AC068AD
:102B40000088082842D910284FD9B1F814E0002095
:102B50005FFA80FC624513D900EB0E0CDAF8743092
:102B6000013045F82C30F3E78868DAF874307044A7
:102B7000435501355FFA85FCB1F814E06245F3D89E
:102B8000888A00251044888294F829100A4484F821
:102B9000292094F82930002B44D0628BE18A8A42A4
:102BA00072D059F82700521A416A9342CD68C8BFC3
:102BB000D2B2C168D8BF1A4601BBD5F804E0CDB285
:102BC000AA4228D90131CAF864E0F8E70025D1E724
:102BD0008444DAF87430013025F81C305FFA80FE46
:102BE000B1F814C07245F3D8CAE70020F6E7DAF866
:102BF00074000135E8B28242F9D8C1E7B5F800E0C7
:102C0000C58ABEF1080F20D84FF0000E29445FFAA4
:102C10008EF8424512D8C18A002511449A1AC18201
:102C200084F82920002103A800F0CEF9019B054477
:102C3000AB423FF662AFAEB3032034E011F80E5062
:102C40000EF1010ECAF86450E1E7BEF1100F4FF02B
:102C5000000E14D95FFA8EF84245DCD90EEB050858
:102C60000EF1010E51F82880CAF86480F2E70EEBED
:102C700005080EF1010E31F81880CAF864805FFA79
:102C80008EF84245F3D8C6E7227F002ACAD1DAF887
:102C900060209302C6D5DAF8602022F44012CAF808
:102CA0006020BFE701200323636005E7D46F500075
:102CB0007C6140202DE9F0471E4605781B4B0746F6
:102CC0008A46914653F82540194B53F8258001F068
:102CD00087FD6368022B04D101F09EFD0120BDE851
:102CE000F08702236762636001F096FD089B32461D
:102CF000514623610423284684F82930FFF742FE19
:102D0000284632464946FFF723FD00232068C8F8CD
:102D10001C3018B1012804D01846E0E7C8F81800A4
:102D2000DDE741F60302C8F81820F5E77C61402092
:102D3000D46F5000094B53F820301A6862B9084A22
:102D400052F820205169890705D45269D20703D56A
:102D500093F8293003B117E5704700BF7C6140202C
:102D6000D46F50000278054B53F822305B68022B79
:102D70001BBFC36800200120198070477C61402080
:102D80000278054B53F822305B68022B1BBFC368E7
:102D900000200120997070477C6140200278054B2B
:102DA00053F822305B68022B1BBFC3680020012050
:102DB000596070477C614020044B53F820305A68BA
:102DC000022A1ABF00201960012070477C61402050
:102DD00070B5114B2C260278057C53F822100F4B4E
:102DE00003F1100405FB064443F82240446806FB47
:102DF000053344F0080418630C6184684C620224B3
:102E00008C654FF48071998501215961C168104624
:102E1000FFF7D2FF002070BDD46F50007C614020CE
:102E200038B50F4B53F820400E4B53F8205001F0AB
:102E300009FD6B68022B0FD1236923F00103236185
:102E4000626A236943F002032361236923F00203CA
:102E50002361012362626B60BDE8384001F00EBD62
:102E6000D46F50007C61402009490A4B51F8202062
:102E700053F820303AB15A699B69134041F6030276
:102E8000134204D080E45A6902F47C525A617047BC
:102E90007C614020D46F5000024B53F8200000B1F9
:102EA000406870477C6140200020FFF7DDBF0000D4
:102EB00070B4104A00238468142510609C4208D125
:102EC000C468002344259C420BD1806970BC00F08B
:102ED0004EB805FB03F10669715811440B710133BB
:102EE000ECE705FB03F14669715811444B7101335E
:102EF000E9E700BFB86140200120704708B5064BE4
:102F000018441A684079536900EB001003EB800005
:102F100000F03AF8002008BDB861402038B5084DEF
:102F20002844047900F0D5FC2B6804EB840418696C
:102F300000EB840000F034F8BDE8384000F0E0BC5D
:102F4000B861402008B500F021F8002008BD00F06D
:102F50001FB800F027B800F027B800F027B800F03D
:102F600027B8704710B90846FFF7FBBF704710B588
:102F700004460448FEF71AF92046BDE8104000F068
:102F8000ADB800BF652F5000FDF741BDFEF774B826
:102F900008B5FEF71DF810B1012818BF022008BDC2
:102FA00000F056B800F08AB800F096B8FEF7ECB81A
:102FB00008B900F0A7B800F0A3B800BF08B100BE80
:102FC000FDE7704700207047B1FA81F04009704773
:102FD0007047002918BF002070474FF0E0230022FF
:102FE0006FF07F411A6159619A6105221A61704739
:102FF0004FF0E023986920F07F4070474FF0E021C8
:1030000003688A6922F07F42934205D24969891A8E
:103010000B440260184670479B1AFAE710B5044645
:10302000006900F095F823691A7B22B11B7813B16F
:10303000002000F0A5F800F0B1F818B9BDE8104084
:1030400000F094BB07210120BDE8104000F0A6BBB2
:1030500038B504464568C06800F0B0F9E06800F093
:10306000E8F8E06800F0BFF9012D04D82846BDE873
:10307000384000F0CDB90D2D04D12046BDE83840D0
:1030800000F0D4B90E2D01D0112D03D12046BDE89A
:103090003840C3E70F2D01D0122D04D12046BDE8E2
:1030A000384000F0CEB9102D01D0132D03D12046A9
:1030B000FFF7B4FFF2E738BD00F0DCB908B500F067
:1030C000EFFA38B900F0D6F90F2803D0BDE8084070
:1030D00000F03ABA1C2008BD00F08CBA10B50446C6
:1030E000006800F019FA606800F0ECFA0120BDE811
:1030F000104000F045B8014B186070470460402054
:1031000000F00BB800F000B84FF0E022D2F8103D0C
:1031100023F00203C2F8103D70474FF0E022D2F8CE
:10312000103D43F00203C2F8103D70474FF0E0221B
:10313000D2F8103D23F00403C2F8103D70474FF061
:10314000E022D2F8103D43F00403C2F8103D70476E
:1031500003788BB14378094A012B0ABF43680023E7
:1031600043F00103C2F81036D2F80436816823F028
:1031700078030B43C2F80436704700BF00C02A40F2
:10318000054A0004D2F8003600F4803023F480337E
:103190001843C2F80006704700C02A40024B186866
:1031A00000F00100704700BF00C02E40034B45F601
:1031B000F0221A604AF20F521A60704700C02D4088
:1031C0008368DA0730B585B031D5847802A94568BF
:1031D00001A8640205F0010304F1804404F53714EA
:1031E000D4F8002122F001021343C4F80031D4F8CE
:1031F000043143F00103C4F80431FFF7D7FF4CF268
:10320000503303AA00F0D1FA039A02A901A800F0F2
:10321000DCFAD4F808316B40DB0706D50028F3D080
:10322000FF21002000F0BAFA01E00028F8D105B033
:1032300030BD2DE9F04F002687B00090009B5D68FF
:103240001C237343EF18EB5C002B7FD10136032E58
:10325000F4D107B0BDE8F08F39690AFB03F3CA184F
:10326000CB5C93B3BB7804A9547803A804EBC314D4
:10327000A400D2E9019B04F180444F4A04F53714BD
:1032800002EB4323C4F83091D3F8042142F0010249
:10329000C3F80421FFF78AFF4CF2503305AA00F06F
:1032A00084FA059A04A903A800F08FFAD4F8103123
:1032B0000BEA0303994506D00028F2D0FF21002035
:1032C00000F06CFA01E00028F8D108F101083A7B1F
:1032D0005FFA88F39A42BFD81C234FF000084FF0E2
:1032E0000C0B03FB06552A7D5FFA88F39A42ADD991
:1032F000A9690BFB03F3CA18CB5C23B3D2F808907F
:1033000097F802A019F0010F547826D14CF25033EF
:1033100005AA04A903A800F048FA274A04EB0A13F7
:1033200002EB4313059A04A903A8019300F04DFA98
:10333000019BD3F84821002A0DDB0028F2D0FF21A1
:10334000002000F02BFA08F10108CCE74FF000084C
:103350004FF00C0ABBE70028F1D104EB0A1304A9D3
:1033600003A804EB0A145B0103F1804303F5371350
:10337000C3F84091D3F8442142F00102C3F844213C
:10338000FFF714FF4CF2503305AA00F00EFA0A4B77
:1033900003EB4414059A04A903A800F016FAD4F824
:1033A000483189EA0303DB0702D50028F2D0C6E7DB
:1033B0000028C8D0C3E700BF00C02D4070B5054647
:1033C00000241C2606FB04F36A68D018D35C33B1D2
:1033D000437823B14368DB0701D5FFF7F1FE0134E1
:1033E000032CEFD170BD70B5054600241C2606FBEA
:1033F00004F36A68D018D35C33B1437823B14368CF
:10340000DB0701D4FFF7DCFE0134032CEFD170BDE4
:10341000054B20B901225A6001229A60C6E60128B4
:10342000FAD10222F7E700BF00C02D4008B5BFF374
:103430004F8F037A0BB1FFF770FE30BFBFF34F8F92
:1034400008BD08B5C3681A68094B1A61BFF34F8FEE
:103450004FF400425A6001229A60FFF7A7FEBFF3C3
:103460004F8F037A0BB1FFF758FE30BF08BD00BF86
:1034700000C02D40034BDB6813F0010F14BF0F2079
:103480000220704700C02D407FB50446D0B10E4DDC
:103490004CF250330D4E03AA02A901A800F085F9A1
:1034A000039A02A901A800F090F9AC60AC6834401E
:1034B00006D00028F4D0FF21002000F06FF901E0D1
:1034C0000028F8D104B070BD00C02840D9021160B6
:1034D0007FB50F4D04460F4E4CF2503303AA02A99C
:1034E00001A800F062F9039A02A901A800F06DF9A1
:1034F0002C602C68344006D00028F4D0FF21002036
:1035000000F04CF901E00028F8D104B070BD00BF14
:1035100000C0284059D7066038B5094C0546A06858
:1035200018B1084B1860FFF7AFFF2B68E360236802
:103530002BB16A68DB07A26101D5AB68E36138BDD6
:1035400000C02840C0614020F8B5244B24481B68C7
:10355000244F184000B1786000247E681D254FF08C
:10356000010C22462346DFF884E00CFA03F111EA4D
:103570000E0F05D00E4202D05ABB2546012201345F
:103580000133202BF1D108B1FFF7A2FFEEB9134BA5
:1035900015489B68184000B138603A689AB100231A
:1035A0001D250127DFF848C007FA03F111EA0C0FC7
:1035B00006D00A4203D0012E09D025460126013447
:1035C0000133202BF0D1FFF75FFF2846F8BD1E2501
:1035D000F9E71E250028F8D0D6E700BF00C0284034
:1035E00059D70660C0614020D902116059D70760E1
:1035F000D9171160F8B5244B24489B68244D184016
:1036000000B128602C68C4B100230121DFF88CC010
:103610001A461E4601FA02F717EA0C0F07D03C4281
:1036200018BF01FA03F703F1010318BF3E4301324B
:10363000202AEFD13446FFF727FF134B15481B68AC
:10364000184000B168606968A9B10F220023012504
:10365000114F05FA03F63E4207D0314218BF05FA72
:1036600002F602F1010218BF34430133202BF0D1DE
:1036700008B1FFF72DFF2CB9FFF7FCFE0F2808BF9C
:103680004FF400542046F8BD00C02840D902116014
:10369000C061402059D7066059D70760D91711601B
:1036A0000649074A4B6A13F0030301D093604B624B
:1036B000906810F0030018BF0120704700C0284038
:1036C000C06140201FB5264B264A19688A4301D1A4
:1036D000254A1A600268D40728D522F00101900714
:1036E00059601ED51E4C4CF2503303AA02A901A802
:1036F00000F05BF802A9039A01A800F066F82368BD
:10370000990406D50028F5D0FF21002000F046F8E6
:1037100005E00028F8D1636843F00103636004B05A
:1037200010BD5A6842F001025A60F8E75A60D203AD
:10373000F5D50B4C4CF2503303AA02A901A800F0B6
:1037400034F8039A02A901A800F03FF863689B03CC
:1037500002D40028F5D0D7E70028E0D0D4E700BF96
:1037600000802E400000FF803F00FF830A4B5A6814
:1037700022F440725A605A68D10702D45A68D203C0
:1037800009D55A685521022022F4803222F0030222
:103790005A6000F003B8704700802E40014B1B6850
:1037A000184700BF046040207047F8B50746002066
:1037B0000E4614461D46FFF705FC002138602846DA
:1037C0003160FFF706FC2060F8BD38B50C460021DB
:1037D0001546FFF7F9FB23681844A842206034BF60
:1037E0000020012038BD00BF836900228168B1FB41
:1037F000F3F11346F0B58A4225D00BB11846F0BD5F
:103800008469013C072C1CD8DFE804F004091B0E76
:103810001B1B1B1344680569A5540132EBE7446880
:10382000056924F81250F8E74468056944F8225005
:10383000F3E74468D0E9046704EBC204C4E9006715
:10384000EBE70123E9E7002BD8D11E4606E04368E9
:10385000027C9B5DD31A18BF012301368E42CDD066
:10386000002BCBD18369013B072B2CD801A252F846
:1038700023F000BF4F38500095385000C738500033
:103880009F385000C7385000C7385000C738500024
:10389000A93850004368028A33F81630DAE74368E3
:1038A000026953F82630D5E7436803EBC60253F8A4
:1038B00036505468D0E90432944208BF9D4214BF88
:1038C00001230023C9E70123C7E700BFEFF31080FE
:1038D000704708B5FCF71EFF084B53F820203AB993
:1038E000EFF31082D10700D472B603EB80010A61B6
:1038F00053F82020013243F8202008BDCC6140203D
:1039000008B5FCF707FF084B53F82020013A43F8AD
:10391000202003EB80021269D20703D453F8203031
:1039200003B962B608BD00BFCC61402008B5FCF702
:10393000F1FE094B820003EB8000016A31B9EFF31D
:103940001081C80700D472B69818016313441A6A2C
:1039500001321A6208BD00BFCC61402008B5FCF7F7
:10396000D9FE064B03EB8000036A013B0362036B45
:10397000DB0702D4036A03B962B608BDCC614020FC
:1039800008B5FCF7C7FE094B820003EB8000016C11
:1039900031B9EFF31081C80700D472B698180165E9
:1039A00013441A6C01321A6408BD00BFCC61402078
:1039B00008B5FCF7AFFE064B03EB8000036C013B40
:1039C0000364036DDB0702D4036C03B962B608BD60
:1039D000CC614020EFF31080704708B5FCF79AFEE9
:1039E000084B53F820203AB9EFF31082D10700D4E6
:1039F00072B603EB80010A6153F82020013243F8CC
:103A0000202008BD2C62402008B5FCF783FE084B3F
:103A100053F82020013A43F8202003EB800212697A
:103A2000D20703D453F8203003B962B608BD00BFF3
:103A30002C62402008B5FCF76DFE094B820003EBB9
:103A40008000016A31B9EFF31081C80700D472B663
:103A50009818016313441A6A01321A6208BD00BF44
:103A60002C62402008B5FCF755FE064B03EB8000A6
:103A7000036A013B0362036BDB0702D4036A03B9E9
:103A800062B608BD2C62402008B5FCF743FE094B26
:103A9000820003EB8000016C31B9EFF31081C8079D
:103AA00000D472B69818016513441A6C01321A6476
:103AB00008BD00BF2C62402008B5FCF72BFE064B6A
:103AC00003EB8000036C013B0364036DDB0702D44E
:103AD000036C03B962B608BD2C62402008B5FCF740
:103AE00019FE094B820003EB8000016E31B9EFF340
:103AF0001081C80700D472B69818016713441A6E73
:103B000001321A6608BD00BF2C62402008B5FCF7E0
:103B100001FE064B03EB8000036E013B0366036F5F
:103B2000DB0702D4036E03B962B608BD2C624020E5
:103B300008B5FCF7EFFD0B4B820003EB8000D0F8DB
:103B4000801039B9EFF31081C80700D472B6981805
:103B5000C0F890101344D3F880200132C3F88020BD
:103B600008BD00BF2C62402008B5FCF7D3FD084B10
:103B700003EB8000D0F88030013BC0F88030D0F8F3
:103B80009030DB0703D4D0F8803003B962B608BDAB
:103B90002C62402008B5FCF7BDFD0B4B820003EB07
:103BA0008000D0F8A01039B9EFF31081C80700D415
:103BB00072B69818C0F8B0101344D3F8A0200132A0
:103BC000C3F8A02008BD00BF2C62402008B5FCF758
:103BD000A1FD084B03EB8000D0F8A030013BC0F8FA
:103BE000A030D0F8B030DB0703D4D0F8A03003B950
:103BF00062B608BD2C62402008B5FCF78BFD0B4B6C
:103C0000820003EB8000D0F8C01039B9EFF31081C7
:103C1000C80700D472B69818C0F8D0101344D3F86F
:103C2000C0200132C3F8C02008BD00BF2C62402074
:103C300008B5FCF76FFD084B03EB8000D0F8C030EF
:103C4000013BC0F8C030D0F8D030DB0703D4D0F847
:103C5000C03003B962B608BD2C62402008B5FCF73D
:103C600059FD0B4B820003EB8000D0F8E01039B90E
:103C7000EFF31081C80700D472B69818C0F8F0109E
:103C80001344D3F8E0200132C3F8E02008BD00BFA0
:103C90002C62402008B5FCF73DFD084B03EB80008B
:103CA000D0F8E030013BC0F8E030D0F8F030DB076E
:103CB00003D4D0F8E03003B962B608BD2C624020CE
:103CC00008B5FCF727FD0B4B820003EB8000D0F812
:103CD000001139B9EFF31081C80700D472B69818F3
:103CE000C0F810111344D3F800210132C3F80021A9
:103CF00008BD00BF2C62402008B5FCF70BFD084B47
:103D000003EB8000D0F80031013BC0F80031D0F85F
:103D10001031DB0703D4D0F8003103B962B608BD17
:103D20002C62402008B5FCF7F5FC0B4B820003EB3E
:103D30008000D0F8201139B9EFF31081C80700D402
:103D400072B69818C0F830111344D3F8202101320C
:103D5000C3F8202108BD00BF2C62402008B5FCF745
:103D6000D9FC084B03EB8000D0F82031013BC0F8B0
:103D70002031D0F83031DB0703D4D0F8203103B93B
:103D800062B608BD2C62402008B5FCF7C3FC0B4BA3
:103D9000820003EB8000D0F8401139B9EFF31081B5
:103DA000C80700D472B69818C0F850111344D3F85D
:103DB00040210132C3F8402108BD00BF2C624020E1
:103DC00008B5FCF7A7FC084B03EB8000D0F84031A6
:103DD000013BC0F84031D0F85031DB0703D4D0F8B4
:103DE000403103B962B608BD2C62402008B5FCF72B
:103DF00091FC0B4B820003EB8000D0F8601139B9C5
:103E0000EFF31081C80700D472B69818C0F870118B
:103E10001344D3F860210132C3F8602108BD00BF0C
:103E20002C62402008B5FCF775FC084B03EB8000C2
:103E3000D0F86031013BC0F86031D0F87031DB0759
:103E400003D4D0F8603103B962B608BD2C624020BB
:103E500008B5FCF75FFC0B4B820003EB8000D0F849
:103E6000801139B9EFF31081C80700D472B69818E1
:103E7000C0F890111344D3F880210132C3F8802197
:103E800008BD00BF2C62402008B5FCF743FC084B7E
:103E900003EB8000D0F88031013BC0F88031D0F8CE
:103EA0009031DB0703D4D0F8803103B962B608BD86
:103EB0002C62402008B5FCF72DFC0B4B820003EB75
:103EC0008000D0F8A01139B9EFF31081C80700D4F1
:103ED00072B69818C0F8B0111344D3F8A02101327B
:103EE000C3F8A02108BD00BF2C62402008B5FCF734
:103EF00011FC084B03EB8000D0F8A031013BC0F867
:103F0000A031D0F8B031DB0703D4D0F8A03103B929
:103F100062B608BD2C62402008B5FCF7FBFB0B4BDA
:103F2000820003EB8000D0F8C01139B9EFF31081A3
:103F3000C80700D472B69818C0F8D0111344D3F84B
:103F4000C0210132C3F8C02108BD00BF2C6240204F
:103F500008B5FCF7DFFB084B03EB8000D0F8C0315D
:103F6000013BC0F8C031D0F8D031DB0703D4D0F822
:103F7000C03103B962B608BD2C62402008B5FCF719
:103F8000C9FB0B4B820003EB8000D0F8E01139B97C
:103F9000EFF31081C80700D472B69818C0F8F0117A
:103FA0001344D3F8E0210132C3F8E02108BD00BF7B
:103FB0002C62402008B5FCF7ADFB084B03EB8000FA
:103FC000D0F8E031013BC0F8E031D0F8F031DB0748
:103FD00003D4D0F8E03103B962B608BD2C624020AA
:103FE00008B5FCF797FB0B4B820003EB8000D0F881
:103FF000001239B9EFF31081C80700D472B69818CF
:10400000C0F810121344D3F800220132C3F8002282
:1040100008BD00BF2C62402008B5FCF77BFB084BB5
:1040200003EB8000D0F80032013BC0F80032D0F83A
:104030001032DB0703D4D0F8003203B962B608BDF2
:104040002C62402008B5FCF765FB0B4B820003EBAC
:104050008000D0F8201239B9EFF31081C80700D4DE
:1040600072B69818C0F830121344D3F820220132E7
:10407000C3F8202208BD00BF2C62402008B5FCF721
:1040800049FB084B03EB8000D0F82032013BC0F81D
:104090002032D0F83032DB0703D4D0F8203203B915
:1040A00062B608BD2C62402008B5FCF733FB0B4B11
:1040B000820003EB8000D0F8401239B9EFF3108191
:1040C000C80700D472B69818C0F850121344D3F839
:1040D00040220132C3F8402208BD00BF2C624020BC
:1040E00008B5FCF717FB084B03EB8000D0F8403213
:1040F000013BC0F84032D0F85032DB0703D4D0F88F
:10410000403203B962B608BD2C62402008B5FCF706
:1041100001FB0B4B820003EB8000D0F8601239B931
:10412000EFF31081C80700D472B69818C0F8701267
:104130001344D3F860220132C3F8602208BD00BFE7
:104140002C62402008B5FCF7E5FA084B03EB800031
:10415000D0F86032013BC0F86032D0F87032DB0733
:1041600003D4D0F8603203B962B608BD2C62402097
:1041700008B5FCF7CFFA0B4B820003EB8000D0F8B8
:10418000801239B9EFF31081C80700D472B69818BD
:10419000C0F890121344D3F880220132C3F8802271
:1041A00008BD00BF2C62402008B5FCF7B3FA084BED
:1041B00003EB8000D0F88032013BC0F88032D0F8A9
:1041C0009032DB0703D4D0F8803203B962B608BD61
:1041D0002C62402008B5FCF79DFA0B4B820003EBE4
:1041E0008000D0F8A01239B9EFF31081C80700D4CD
:1041F00072B69818C0F8B0121344D3F8A022013256
:10420000C3F8A02208BD00BF2C62402008B5FCF70F
:1042100081FA084B03EB8000D0F8A032013BC0F8D4
:10422000A032D0F8B032DB0703D4D0F8A03203B903
:1042300062B608BD2C62402008B5FCF76BFA0B4B48
:10424000820003EB8000D0F8C01239B9EFF310817F
:10425000C80700D472B69818C0F8D0121344D3F827
:10426000C0220132C3F8C02208BD00BF2C6240202A
:1042700008B5FCF74FFA084B03EB8000D0F8C032CA
:10428000013BC0F8C032D0F8D032DB0703D4D0F8FD
:10429000C03203B962B608BD2C62402008B5FCF7F5
:1042A00039FA0B4B820003EB8000D0F8E01239B9E9
:1042B000EFF31081C80700D472B69818C0F8F01256
:1042C0001344D3F8E0220132C3F8E02208BD00BF56
:1042D0002C62402008B5FCF71DFA084B03EB800068
:1042E000D0F8E032013BC0F8E032D0F8F032DB0722
:1042F00003D4D0F8E03203B962B608BD2C62402086
:1043000008B5FCF707FA0B4B820003EB8000D0F8EE
:10431000001339B9EFF31081C80700D472B69818AA
:10432000C0F810131344D3F800230132C3F800235C
:1043300008BD00BF2C62402008B5FCF7EBF9084B24
:1043400003EB8000D0F80033013BC0F80033D0F815
:104350001033DB0703D4D0F8003303B962B608BDCD
:104360002C62402008B5FCF7D5F90B4B820003EB1B
:104370008000D0F8201339B9EFF31081C80700D4BA
:1043800072B69818C0F830131344D3F820230132C2
:10439000C3F8202308BD00BF2C62402008B5FCF7FD
:1043A000B9F9084B03EB8000D0F82033013BC0F88B
:1043B0002033D0F83033DB0703D4D0F8203303B9EF
:1043C00062B608BD2C62402008B5FCF7A3F90B4B80
:1043D000820003EB8000D0F8401339B9EFF310816D
:1043E000C80700D472B69818C0F850131344D3F815
:1043F00040230132C3F8402308BD00BF2C62402097
:1044000008B5FCF787F9084B03EB8000D0F8403380
:10441000013BC0F84033D0F85033DB0703D4D0F869
:10442000403303B962B608BD2C62402008B5FCF7E2
:1044300071F90B4B820003EB8000D0F8601339B99F
:10444000EFF31081C80700D472B69818C0F8701343
:104450001344D3F860230132C3F8602308BD00BFC2
:104460002C62402008B5FCF755F9084B03EB80009F
:10447000D0F86033013BC0F86033D0F87033DB070D
:1044800003D4D0F8603303B962B608BD2C62402073
:10449000EFF31080704708B5FCF73CF9084B53F870
:1044A00020203AB9EFF31082D10700D472B603EBA3
:1044B00080010A6153F82020013243F8202008BD12
:1044C000AC65402008B5FCF725F9084B53F82020CF
:1044D000013A43F8202003EB80021269D20703D48B
:1044E00053F8203003B962B608BD00BFAC65402068
:1044F00008B5FCF70FF9094B820003EB8000016A55
:1045000031B9EFF31081C80700D472B6981801636F
:1045100013441A6A01321A6208BD00BFAC6540201C
:1045200008B5FCF7F7F8064B03EB8000036A013B84
:104530000362036BDB0702D4036A03B962B608BDEA
:10454000AC65402008B5FCF7E5F8094B820003EBA9
:104550008000016C31B9EFF31081C80700D472B646
:104560009818016513441A6C01321A6408BD00BF23
:10457000AC65402008B5FCF7CDF8064B03EB800096
:10458000036C013B0364036DDB0702D4036C03B9C6
:1045900062B608BDAC65402008B5FCF7BBF8094B16
:1045A000820003EB8000016E31B9EFF31081C80780
:1045B00000D472B69818016713441A6E01321A6655
:1045C00008BD00BFAC65402008B5FCF7A3F8064B5A
:1045D00003EB8000036E013B0366036FDB0702D42D
:1045E000036E03B962B608BDAC65402008B5FCF7A0
:1045F00091F80B4B820003EB8000D0F8801039B9A2
:10460000EFF31081C80700D472B69818C0F8901064
:104610001344D3F880200132C3F8802008BD00BFC6
:10462000AC65402008B5FCF775F8084B03EB80003B
:10463000D0F88030013BC0F88030D0F89030DB07F4
:1046400003D4D0F8803003B962B608BDAC65402011
:1046500008B5FCF75FF80B4B820003EB8000D0F845
:10466000A01039B9EFF31081C80700D472B69818BA
:10467000C0F8B0101344D3F8A0200132C3F8A02032
:1046800008BD00BFAC65402008B5FCF743F8084BF7
:1046900003EB8000D0F8A030013BC0F8A030D0F888
:1046A000B030DB0703D4D0F8A03003B962B608BD40
:1046B000AC65402008B5FCF72DF80B4B820003EBEE
:1046C0008000D0F8C01039B9EFF31081C80700D4CA
:1046D00072B69818C0F8D0101344D3F8C020013235
:1046E000C3F8C02008BD00BFAC65402008B5FCF78A
:1046F00011F8084B03EB8000D0F8C030013BC0F844
:10470000C030D0F8D030DB0703D4D0F8C03003B9C4
:1047100062B608BDAC65402008B5FBF7FBFF0B4B4C
:10472000820003EB8000D0F8E01039B9EFF310817C
:10473000C80700D472B69818C0F8F0101344D3F824
:10474000E0200132C3F8E02008BD00BFAC65402086
:1047500008B5FBF7DFFF084B03EB8000D0F8E03033
:10476000013BC0F8E030D0F8F030DB0703D4D0F8DC
:10477000E03003B962B608BDAC65402008B5FBF770
:10478000C9FF0B4B820003EB8000D0F8001139B950
:10479000EFF31081C80700D472B69818C0F8101152
:1047A0001344D3F800210132C3F8002108BD00BF33
:1047B000AC65402008B5FBF7ADFF084B03EB80006C
:1047C000D0F80031013BC0F80031D0F81031DB07E0
:1047D00003D4D0F8003103B962B608BDAC654020FF
:1047E00008B5FBF797FF0B4B820003EB8000D0F876
:1047F000201139B9EFF31081C80700D472B69818A8
:10480000C0F830111344D3F820210132C3F820211D
:1048100008BD00BFAC65402008B5FBF77BFF084B27
:1048200003EB8000D0F82031013BC0F82031D0F8F4
:104830003031DB0703D4D0F8203103B962B608BDAC
:10484000AC65402008B5FBF765FF0B4B820003EB1E
:104850008000D0F8401139B9EFF31081C80700D4B7
:1048600072B69818C0F850111344D3F840210132A1
:10487000C3F8402108BD00BFAC65402008B5FBF778
:1048800049FF084B03EB8000D0F84031013BC0F8F2
:104890004031D0F85031DB0703D4D0F8403103B9B0
:1048A00062B608BDAC65402008B5FBF733FF0B4B83
:1048B000820003EB8000D0F8601139B9EFF310816A
:1048C000C80700D472B69818C0F870111344D3F812
:1048D00060210132C3F8602108BD00BFAC654020F3
:1048E00008B5FBF717FF084B03EB8000D0F86031E9
:1048F000013BC0F86031D0F87031DB0703D4D0F849
:10490000603103B962B608BDAC65402008B5FBF75D
:1049100001FF0B4B820003EB8000D0F8801139B906
:10492000EFF31081C80700D472B69818C0F8901140
:104930001344D3F880210132C3F8802108BD00BFA1
:10494000AC65402008B5FBF7E5FE084B03EB8000A3
:10495000D0F88031013BC0F88031D0F89031DB07CE
:1049600003D4D0F8803103B962B608BDAC654020ED
:1049700008B5FBF7CFFE0B4B820003EB8000D0F8AD
:10498000A01139B9EFF31081C80700D472B6981896
:10499000C0F8B0111344D3F8A0210132C3F8A0210C
:1049A00008BD00BFAC65402008B5FBF7B3FE084B5F
:1049B00003EB8000D0F8A031013BC0F8A031D0F863
:1049C000B031DB0703D4D0F8A03103B962B608BD1B
:1049D000AC65402008B5FBF79DFE0B4B820003EB56
:1049E0008000D0F8C01139B9EFF31081C80700D4A6
:1049F00072B69818C0F8D0111344D3F8C021013210
:104A0000C3F8C02108BD00BFAC65402008B5FBF766
:104A100081FE084B03EB8000D0F8C031013BC0F8A9
:104A2000C031D0F8D031DB0703D4D0F8C03103B99E
:104A300062B608BDAC65402008B5FBF76BFE0B4BBA
:104A4000820003EB8000D0F8E01139B9EFF3108158
:104A5000C80700D472B69818C0F8F0111344D3F800
:104A6000E0210132C3F8E02108BD00BFAC65402061
:104A700008B5FBF74FFE084B03EB8000D0F8E031A0
:104A8000013BC0F8E031D0F8F031DB0703D4D0F8B7
:104A9000E03103B962B608BDAC65402008B5FBF74C
:104AA00039FE0B4B820003EB8000D0F8001239B9BD
:104AB000EFF31081C80700D472B69818C0F810122E
:104AC0001344D3F800220132C3F8002208BD00BF0E
:104AD000AC65402008B5FBF71DFE084B03EB8000DA
:104AE000D0F80032013BC0F80032D0F81032DB07BA
:104AF00003D4D0F8003203B962B608BDAC654020DB
:104B000008B5FBF707FE0B4B820003EB8000D0F8E3
:104B1000201239B9EFF31081C80700D472B6981883
:104B2000C0F830121344D3F820220132C3F82022F7
:104B300008BD00BFAC65402008B5FBF7EBFD084B96
:104B400003EB8000D0F82032013BC0F82032D0F8CF
:104B50003032DB0703D4D0F8203203B962B608BD87
:104B6000AC65402008B5FBF7D5FD0B4B820003EB8D
:104B70008000D0F8401239B9EFF31081C80700D493
:104B800072B69818C0F850121344D3F8402201327C
:104B9000C3F8402208BD00BFAC65402008B5FBF754
:104BA000B9FD084B03EB8000D0F84032013BC0F860
:104BB0004032D0F85032DB0703D4D0F8403203B98A
:104BC00062B608BDAC65402082B08DF807009DF844
:104BD00007300BB900BEFDE702B07047024600384F
:104BE00038B518BF0120FFF7EFFF50689A288CBF37
:104BF00000200120FFF7E8FF9368906A022BD46839
:104C000017BFDB02002303F4006343F400530228C0
:104C10001EBF410501F400110B43516A02291EBF5A
:104C2000490401F400310B43116A02291EBF090433
:104C300001F480310B43916902291EBF090201F47E
:104C400080710B43D16902291EBF890101F0400127
:104C50000B43D16A02291EBFC90401F400210B4392
:104C6000516902291EBF890301F480410B43116978
:104C700002291EBF490101F020010B4304F00F017E
:104C80000B4354B9012808D192F8B800022804D087
:104C90009188244C81F003010855D2E9000190313C
:104CA00040F82130D36A012B17D01F4B116BD3F87A
:104CB0000C3641BB526B62B1110449BF42F07F42D6
:104CC000134342F47F0242F4794244BF42F081022E
:104CD0001340154AC2F80C3638BD02F1380302F110
:104CE0007804124D53F8040B102809D0D96BB1F594
:104CF000CC7F05D800F00F0001F5247145F82100A4
:104D00009C42EFD1D1E7080449BF41F07F410B43FA
:104D100041F47F0141F4794144BF41F081010B40EE
:104D2000C8E700BF0013294000C02A400000294006
:104D3000F8B5084B04460E460025BC27C3E9001011
:104D4000A54201D10020F8BD07FB05600135FFF742
:104D500045FFF5E70C68402070B50446003816465C
:104D60000D4618BF0120FFF72FFF0F298CBF002031
:104D70000120FFF729FFFEF75DFE012E13D0022E62
:104D800007D0AEB954F8253023F4006343F4005340
:104D900003E054F8253023F4005344F82530BDE8EF
:104DA0007040FEF75FBE54F8253043F42053F4E71B
:104DB00000BEFDE7F8B5044600381E460D4618BF94
:104DC00001201746FFF700FF0F2906F00F068CBFE2
:104DD00000200120FFF7F8FEFEF756FE54F82530BC
:104DE000002F23F4001314BF4FF40012002244F8E4
:104DF000253054F82530134344F8253054F8253035
:104E000023F00F0344F8253054F825301E4344F8AE
:104E10002560BDE8F840FEF74FBE0F292DE9F041AF
:104E200005468CBF002001200E4690461C46069F7A
:104E3000FFF7CAFEFEF752FE85B155F82630B8F1ED
:104E4000000F23F4002314BF4FF40022002245F882
:104E5000263055F82630134345F82630102F10D051
:104E6000B4F5CC7F0DD8A30007F00F0703F1804302
:104E700003F52413D3F8402A22F00F021743C3F896
:104E8000407ABDE8F041FEF741BE70B504460038F7
:104E900016460D4618BF0120FFF796FE0F298CBF5E
:104EA00000200120FFF790FEFEF742FE032E0FD8F0
:104EB000DFE806F002121D2254F8253023F4001317
:104EC00044F8253054F8253043F4002344F82530C5
:104ED000BDE87040FEF748BE54F8253023F40023A7
:104EE00044F8253054F8253043F40013EEE754F825
:104EF000253043F42013E9E754F8253023F4201338
:104F0000E4E7F8B504460038124B0D4618BF0120FF
:104F1000D3E90026FFF758FE0F298CBF002001209F
:104F2000FFF752FE0C4B23449B0901EB03130021B6
:104F3000B14202D14FF0FF3009E01046BC3252F8C6
:104F4000B87C9F4204D1FFF749FE54F82500F8BD14
:104F50000131EDE70C684020C0FDD6BFF8B505462D
:104F600000382D4B164618BF01200C46D3E900121D
:104F7000FFF72AFE0F2E8CBF00200120FFF724FE32
:104F8000264B4FF0000C2B449B0906EB0313944572
:104F90003DD00F46BC3151F8B80C984238D13A6830
:104FA00007F1780104F17800C4E9002397F8B830DC
:104FB000402284F8B83000F0A3FE402207F1380107
:104FC00004F1380000F09CFE55F8263003F00F0283
:104FD000E260C3F3401222619A044CBFC3F3C022C3
:104FE0000222A260C3F380326261C3F30022A26195
:104FF000C3F38012E261C3F340426262C3F3004232
:105000002262C3F3C042C3F34053E262A362F8BD1D
:105010000CF1010CBBE700BF0C684020C0FDD6BFFF
:1050200008B50D4B0A46196829B91A235320FDF714
:1050300038FA012008BD8B78834202D20A2300216E
:10504000F4E7CB6853F820300BB90F23F7E7586922
:105050000028EFD0F9E700BF14684020F8B50446F7
:105060000F46FFF745FA94F91030002B05DA0123BB
:105070006361BDE8F840FFF753BA34F813500C22CF
:10508000164E4FF6FF7004EB430102FB0562928956
:10509000824224F813200DD1013BA01C0A815BB28F
:1050A00059B2B1F1FF3F04D0013B30F813C0944531
:1050B000F6D02174FFF734FA0C230122658303FB39
:1050C00005635A600023237656F827301B6953F88E
:1050D0002500BDE8F84000F067BD00BF146840201F
:1050E0002DE9F04104460D461746FFF7D4F9D4F8F0
:1050F00014801A4EB8F1010F10D102236361FFF73B
:10510000E1F90C233846658303FB05660023C6F8E6
:1051100004802376BDE8F04100F046BD97F91020E9
:105120004FF6FF7704EB420110460B89BB4217BFD5
:105130000C2024F8125000FB03639D814FF6FF738F
:105140000D810C2101FB0565AB8194F91030934270
:10515000B8BF2274BDE8F041FFF7B4B9146840202D
:10516000014620B9102309225320FDF79AB92B23B9
:10517000038053234380032383800023837170477C
:10518000F7B5374C226842B14A230022114653201A
:1051900003B0BDE8F040FDF784B908B16A23F5E734
:1051A000304B1A680AB96F23F0E72346D7684FF0EF
:1051B000010E43F8102B92F802C057F8201069B185
:1051C0004D695DB90E68012E09BF096989890D60B5
:1051D0008D6014BF59805D8083F800E00130043396
:1051E0006045EAD91669002395881F4956F82300BF
:1051F00018B1406908B9C1E9000001330C31AB4274
:10520000F4D91A49002356694FF0FF3E977901F10E
:10521000100C56F8230028B145681DB94CF823E05E
:10522000C1E9005001331031BB42F2D9D36919688A
:10523000A1B18A6892B91046019200F002FC019A6D
:105240001146104600F09AFC4FF0FF33C4E90A33D0
:10525000C4E90C3384F838300123E36303B0F0BDB4
:10526000146840203077500018684020286840209B
:105270002DE9F843884602210746FFF7D1FE06468E
:1052800080B91A4C2368DB6853F82750D5F8009092
:10529000B9F1010F09D14E4601460A2302225320DB
:1052A000FDF7FFF83046BDE8F883FFF79FF9B8F146
:1052B000000F08D104EB8704237C43F0010323741F
:1052C000FFF7B0F9EEE72B6958683346A9899AB21F
:1052D000914205D804EB8704237C23F00103EEE719
:1052E00018F80320C2540133F0E700BF14684020CF
:1052F0002DE9F84F624E0746316831B91A2303226F
:105300005320FDF7CEF8012586E08B79834203D246
:105310000C2303220021F3E70FFA80FA4B6953F8BC
:105320002A309BB901250F23032200215320FDF7CA
:10533000B8F833685B6953F82A80B8F80090B9F17F
:10534000000F42D15C2303224946D9E75D68002D56
:10535000EFD0E7E73368D8F808201B6932F814204B
:1053600053F822B09BF8001029B901255D230322D0
:105370005320FDF796F833689BF81C20DB6953F83F
:1053800022301B690BB10E23C3E70134002DBAD1C3
:10539000A3B29945DED8002DB5D1B8F80040D8F8B1
:1053A00008B0FFF7F9F8012C39D10C22BBF8003016
:1053B00002FB03639A6852B1FFF706F92A2303221E
:1053C00000215320FDF782F89DE70024E0E72D4AF5
:1053D00002EB0A129A60FFF7F7F806EB07170123B2
:1053E0000C2003247B61B8F80030013B3B84D8F8E3
:1053F00008301A4603EB4909FB61914539D11988F8
:1054000033681B6953F821201F4B107FC0EBC0008D
:1054100003EB8000FFF764FE2846BDE8F88F194AC9
:105420004FF00C0CD8F8080002EB0A1E0146DCB164
:105430000B8802300CFB03639A6822B9013CC3F865
:1054400008E0A4B2F2E7B8F800209442B4D24FF0DA
:105450000C0C0020013431F8023DA4B20CFB0363B4
:10546000A2429860F6D10124FFF7AEF8002CB4D028
:10547000A4E732F8021B00FB01614C60BDE700BFEE
:1054800014684020286840203C68402070B50C46D5
:1054900004210546FFF7C4FD70B90E4B1B68DB689D
:1054A00053F825201368012B07D10A230422002179
:1054B0005320FCF7F6FF012070BD002CF5D01369D6
:1054C0009E680346958999B28D42F5D9F15CE15405
:1054D0000133F7E7146840200E4B10B51C683CB947
:1054E0001A23062221465320FCF7DBFF204610BD7D
:1054F000E26912685AB192684AB95A6C012A04D01A
:10550000D86B022818BF0120F1E70220EFE7012045
:10551000EDE700BF1468402038B50E4C216831B962
:105520001A2301225320FCF7BCFF012010E0FFF7F3
:10553000D3FF0228F9D02368DB691B6833B19D686B
:1055400025B92946284600F087FAE5630020206047
:1055500038BD00BF1468402008B50F4B196831B939
:105560001A2307225320FCF79CFF022008BD8A88DB
:10557000824203D20B2307220021F3E70A6952F883
:1055800020200AB90F23F6E75269002AFAD10C222B
:1055900002FB00304068E9E71468402008B50F4B73
:1055A000196831B91A2308225320FCF77AFF022028
:1055B00008BD8A79824203D20C2308220021F3E736
:1055C0004A6952F820200AB90F23F6E75268002AE8
:1055D000FAD103EB00104069EAE700BF14684020ED
:1055E0002DE9F04F6B4C85B00746216851B91A235D
:1055F0000A224FF0010A5320FCF753FF504605B032
:10560000BDE8F08F8B79834203D20C230A2200215C
:10561000EFE74B6953F820600EB90F23F6E7736884
:10562000002BFAD1328801929AB20198824235D386
:10563000FFF740F8626C04EB870301255B6A12EA0E
:10564000030840F0A28004EB071321685D61434624
:105650009AB20198824231D3FFF748F84FF0000A1E
:1056600035884FF00C0BD6F80890002D32D1BAF1E6
:10567000000F04EB071714BF022300237B61FFF721
:105680004BF822681FFA88F301998B4270D3FFF719
:105690005FF8F368002BB1D09847AFE7B26832F8F3
:1056A000130001330A6952F82020107FCA6952F8AA
:1056B000202010690028B7D10E23A7E7B26832F87E
:1056C000130001330A6952F82020127F04EB820292
:1056D0005564BDE7B9F8002001210BFB0243596076
:1056E00023681B6953F82230D96821B1CDE9022320
:1056F0008847DDE90223197F4FF01C0A039202223A
:105700000AFB014118460293CA63002100F0B2F976
:10571000029B0122197F0AFB01418246CA6358B9E4
:10572000039A9B680BFB0242506003B19847013D0E
:1057300009F10209ADB298E7A9F102012B4631F84F
:1057400002CF02200BFB0C4250602268126952F813
:105750002C20926822B1CDE902139047DDE90213B3
:10576000013B9BB2002BEAD109EB45090125DEE79D
:10577000B36833F8181008F10108136953F82130A1
:105780001B7F04EB83035D647CE7AA46FEF7AEFF54
:1057900034E700BF146840200C4B10B51C683CB9BE
:1057A0001A230B2200215320FCF77BFE002010BDA2
:1057B00008B10E23F5E7E26912680AB90F23F0E792
:1057C0009268002AFAD1D86BF1E700BF1468402034
:1057D0000E4B196821B91A230C225320FCF761BE25
:1057E0008A79824203D20C230C220021F5E74A6910
:1057F00052F820200AB90F23F6E75268002AFAD19E
:1058000003EB001003234361704700BF146840207E
:10581000154A0146106810B548B1C369D46B1B68BE
:105820006BB91368DB691A6892B9002006E001467B
:105830001A230D225320FCF734FE012010BD986876
:105840000028EED1022CECD11B69002BE9D1F4E742
:1058500090680028E9D11469002CEFD12246204637
:1058600000F08CF9E1E700BF14684020084A136893
:1058700043B97047996849B9D36B022B06D10846E2
:1058800000F066B9DB691B68002BF3D1704700BFDD
:10589000146840202DE9F843866907460C46057FC9
:1058A000FEF750FE3368002B69D07368002B66D07A
:1058B0003460FEF75FFE74680023D7F81480D4F8D4
:1058C00004907360BB6803B19847DFF8BCC0C5EBB8
:1058D000C50731680CF1280022680229A38900EB72
:1058E00087070AD1032A00D02160B9F800000C25EF
:1058F0000024C31A9BB25A000EE0023A012AF4D9DE
:10590000B3B923600AE0D9F808100133895A9BB271
:10591000023205FB01C18C609842F4D8D9F80C30F2
:1059200003B1984741463846BDE8F843FFF796BBB8
:10593000A268013B911CA1605188A3815CF82830CA
:105940001B6953F82120137FAB4206D0C3EBC3037E
:1059500000EB8300FFF7C4FBE4E70C23012003FB0B
:1059600001C358601C23104603FB05C50023A5F89E
:10597000421085F84030BDE8F84300F015B9BDE8A5
:10598000F843FEF7F7BD00BF14684020264B2DE911
:10599000F34107461A5C1C20244B00FB0233244AC7
:1059A00012685C8B10691D7E50F824000135067862
:1059B000B54233D2002931D11D76013E4368006AD9
:1059C0005C5DD368006853F824408068A369D4F80C
:1059D00010E0B3F80280DEF808202368DEE900CE8C
:1059E000012B18BFF446B542DFF84CE0434618BF20
:1059F00001255EF827700CBF39773D777977A56868
:105A0000C1684D60257964790D808C7009490091D9
:105A10006146FDF74FF902B0BDE8F08102B0BDE884
:105A2000F041FFF737BF00BF5C6840203C68402072
:105A3000146840203D5A50007C61402001B1022191
:105A4000A4E70B682BB90B79024AD054C868FDF75C
:105A5000BFB970475C684020054B53F82130DB69C3
:105A600053F820301A6812B91879FCF7E9BF70476B
:105A700014684020036A2DE9F74F1B68002405468F
:105A800090F800800F46D3F800902046DFF8BCA0C5
:105A90005FFA84FCC44502D303B0BDE8F08F5AF826
:105AA00027306A68DB68125D53F82260B06931699B
:105AB0000378D1ED027ADB073ED43368012B0CBFAB
:105AC000096849682B6AD3F800E0B9F1000F15D1D5
:105AD00008F1FF3B9EF804301B4AA34552F82330DF
:105AE00016BF4FF0010B83F81C9083F81CB0BCF17B
:105AF000000F23D14FF0010C83F81DC0DEF80030F9
:105B000003BB4388DEF80800B268D0F80CC0CCF8BC
:105B1000042017EE902A96F804E07679ACF800E0BD
:105B20008CF802604CF250360096FCF7A3FF003868
:105B300018BF01200134ABE70021C3E74FF000029A
:105B40005A77DBE70020F5E77C61402014684020AD
:105B5000084B53F82130DB6953F820301A683AB902
:105B60001879054B53F820301B680BB9FDF7E2B8E4
:105B7000704700BF146840207C61402010B4094C7D
:105B800054F82220D26952F82020106838B91079D0
:105B900019B95DF8044BFDF70FB90121F9E75DF87C
:105BA000044B704714684020C368F7B5044603B13E
:105BB00098471C4B186863681A78C36853F82250DA
:105BC000AB692A691978C90729D4296801290CBF4A
:105BD00011685168267FC06950F826000668E6B94A
:105BE000206A5B880768926897F804C0B8680E4F0F
:105BF00057F82C7094F800C00124A44518BF26461D
:105C00007C77C4683E77AE6866602E796D792680B1
:105C1000A570064C0094FDF74DF803B0F0BD0021CF
:105C2000D8E700BF146840207C6140203D5A5000F6
:105C3000431E012B10B5044601D900BEFDE7FEF757
:105C400071F8064B012C1A680CBF42F0010242F0B9
:105C50000202BDE810401A60FEF780B800402C40F8
:105C6000F8B506460D4609BB00BEFDE715F8332022
:105C7000022A01D900BEFDE714430133B342F5D136
:105C8000FEF782F81D4A00212F1D13684FF6FF7C96
:105C9000012023EA04031360B1420AD1174B1A68AA
:105CA00014431C60BDE8F840FEF78AB80024234680
:105CB000E4E715F83130B3B157F83120624512D01E
:105CC0001BB21F2A03EB83034FEA031303F14023A4
:105CD00003F5301309D9203AD3F804E000FA02F2B0
:105CE00042EA0E025A600131D6E7D3F800E000FA2A
:105CF00002F242EA0E021A60F5E700BF00402C40B3
:105D000088420DD98B1883420AD900EB020CBAB134
:105D1000624613F801CD02F801CD9942F9D17047DE
:105D20000F2A0ED8034602F1FF3C4AB10CF1010CD8
:105D3000013B8C4411F8012B03F8012F6145F9D187
:105D4000704740EA01039B0750D1A2F1100370B5E0
:105D500001F1200C23F00F0501F1100E00F11004E9
:105D6000AC441B095EF8105C44F8105C5EF80C5CF7
:105D700044F80C5C5EF8085C44F8085C5EF8045C6F
:105D800044F8045C0EF1100EE64504F11004E9D16C
:105D9000013312F00C0F01EB031102F00F0400EBC2
:105DA000031327D0043C24F003064FEA940C1E444E
:105DB0001C1F8E465EF8045B44F8045FB442F9D1C0
:105DC0000CF1010402F0030203EB840301EB8401F4
:105DD00002F1FF3C4AB10CF1010C013B8C4411F87B
:105DE000012B03F8012F6145F9D170BD02F1FF3C91
:105DF00003469BE72246EBE7830730B548D0541EA5
:105E0000002A3FD0CAB2034601E0013C3AD303F86E
:105E1000012B9D07F9D1032C2DD9CDB245EA0525DB
:105E20000F2C45EA054536D9A4F1100222F00F0CDB
:105E300003F1200EE6444FEA121C03F1100242E97E
:105E4000045542E9025510327245F8D10CF10102B5
:105E500014F00C0F03EB021204F00F0C13D0ACF192
